{
  "contractName": "VotingContract",
  "abi": [
    {
      "constant": true,
      "inputs": [
        {
          "name": "",
          "type": "uint256"
        }
      ],
      "name": "candidateIds",
      "outputs": [
        {
          "name": "",
          "type": "bytes1"
        }
      ],
      "payable": false,
      "stateMutability": "view",
      "type": "function"
    },
    {
      "constant": true,
      "inputs": [
        {
          "name": "",
          "type": "address"
        }
      ],
      "name": "organizers",
      "outputs": [
        {
          "name": "name",
          "type": "string"
        },
        {
          "name": "N",
          "type": "uint256"
        },
        {
          "name": "E",
          "type": "uint256"
        },
        {
          "name": "exists",
          "type": "bool"
        }
      ],
      "payable": false,
      "stateMutability": "view",
      "type": "function"
    },
    {
      "constant": true,
      "inputs": [],
      "name": "endVotingTime",
      "outputs": [
        {
          "name": "",
          "type": "uint256"
        }
      ],
      "payable": false,
      "stateMutability": "view",
      "type": "function"
    },
    {
      "constant": true,
      "inputs": [
        {
          "name": "",
          "type": "uint256"
        }
      ],
      "name": "registers",
      "outputs": [
        {
          "name": "",
          "type": "bytes32"
        }
      ],
      "payable": false,
      "stateMutability": "view",
      "type": "function"
    },
    {
      "constant": true,
      "inputs": [],
      "name": "countedVotes",
      "outputs": [
        {
          "name": "",
          "type": "uint256"
        }
      ],
      "payable": false,
      "stateMutability": "view",
      "type": "function"
    },
    {
      "constant": true,
      "inputs": [
        {
          "name": "",
          "type": "bytes32"
        }
      ],
      "name": "registerRequests",
      "outputs": [
        {
          "name": "registrarAddress",
          "type": "address"
        },
        {
          "name": "name",
          "type": "string"
        },
        {
          "name": "exists",
          "type": "bool"
        }
      ],
      "payable": false,
      "stateMutability": "view",
      "type": "function"
    },
    {
      "constant": true,
      "inputs": [],
      "name": "voterCount",
      "outputs": [
        {
          "name": "",
          "type": "uint256"
        }
      ],
      "payable": false,
      "stateMutability": "view",
      "type": "function"
    },
    {
      "constant": true,
      "inputs": [],
      "name": "endRegistrationTime",
      "outputs": [
        {
          "name": "",
          "type": "uint256"
        }
      ],
      "payable": false,
      "stateMutability": "view",
      "type": "function"
    },
    {
      "constant": true,
      "inputs": [
        {
          "name": "",
          "type": "uint256"
        }
      ],
      "name": "votes",
      "outputs": [
        {
          "name": "voteString",
          "type": "bytes32"
        },
        {
          "name": "unblinded",
          "type": "uint256"
        },
        {
          "name": "signer",
          "type": "address"
        },
        {
          "name": "counted",
          "type": "bool"
        }
      ],
      "payable": false,
      "stateMutability": "view",
      "type": "function"
    },
    {
      "constant": true,
      "inputs": [
        {
          "name": "",
          "type": "uint256"
        }
      ],
      "name": "blinds",
      "outputs": [
        {
          "name": "",
          "type": "uint256"
        }
      ],
      "payable": false,
      "stateMutability": "view",
      "type": "function"
    },
    {
      "constant": true,
      "inputs": [],
      "name": "blindCount",
      "outputs": [
        {
          "name": "",
          "type": "uint256"
        }
      ],
      "payable": false,
      "stateMutability": "view",
      "type": "function"
    },
    {
      "constant": true,
      "inputs": [],
      "name": "endPreparationTime",
      "outputs": [
        {
          "name": "",
          "type": "uint256"
        }
      ],
      "payable": false,
      "stateMutability": "view",
      "type": "function"
    },
    {
      "constant": true,
      "inputs": [
        {
          "name": "",
          "type": "uint8"
        }
      ],
      "name": "candidates",
      "outputs": [
        {
          "name": "name",
          "type": "string"
        },
        {
          "name": "voteCount",
          "type": "uint256"
        },
        {
          "name": "exists",
          "type": "bool"
        }
      ],
      "payable": false,
      "stateMutability": "view",
      "type": "function"
    },
    {
      "constant": true,
      "inputs": [
        {
          "name": "",
          "type": "uint256"
        }
      ],
      "name": "blindSigRequests",
      "outputs": [
        {
          "name": "requester",
          "type": "address"
        },
        {
          "name": "signer",
          "type": "address"
        },
        {
          "name": "signed",
          "type": "bool"
        }
      ],
      "payable": false,
      "stateMutability": "view",
      "type": "function"
    },
    {
      "constant": true,
      "inputs": [],
      "name": "organizerCount",
      "outputs": [
        {
          "name": "",
          "type": "uint256"
        }
      ],
      "payable": false,
      "stateMutability": "view",
      "type": "function"
    },
    {
      "constant": true,
      "inputs": [
        {
          "name": "",
          "type": "uint256"
        }
      ],
      "name": "organizerAddresses",
      "outputs": [
        {
          "name": "",
          "type": "address"
        }
      ],
      "payable": false,
      "stateMutability": "view",
      "type": "function"
    },
    {
      "constant": true,
      "inputs": [
        {
          "name": "",
          "type": "address"
        }
      ],
      "name": "voters",
      "outputs": [
        {
          "name": "name",
          "type": "string"
        },
        {
          "name": "blinded",
          "type": "uint256"
        },
        {
          "name": "signed",
          "type": "uint256"
        },
        {
          "name": "signer",
          "type": "address"
        },
        {
          "name": "exists",
          "type": "bool"
        }
      ],
      "payable": false,
      "stateMutability": "view",
      "type": "function"
    },
    {
      "constant": true,
      "inputs": [],
      "name": "candidateCount",
      "outputs": [
        {
          "name": "",
          "type": "uint8"
        }
      ],
      "payable": false,
      "stateMutability": "view",
      "type": "function"
    },
    {
      "constant": true,
      "inputs": [],
      "name": "registerCount",
      "outputs": [
        {
          "name": "",
          "type": "uint256"
        }
      ],
      "payable": false,
      "stateMutability": "view",
      "type": "function"
    },
    {
      "constant": true,
      "inputs": [],
      "name": "state",
      "outputs": [
        {
          "name": "",
          "type": "uint8"
        }
      ],
      "payable": false,
      "stateMutability": "view",
      "type": "function"
    },
    {
      "constant": true,
      "inputs": [],
      "name": "voteCount",
      "outputs": [
        {
          "name": "",
          "type": "uint256"
        }
      ],
      "payable": false,
      "stateMutability": "view",
      "type": "function"
    },
    {
      "constant": true,
      "inputs": [
        {
          "name": "",
          "type": "uint256"
        }
      ],
      "name": "voterAddresses",
      "outputs": [
        {
          "name": "",
          "type": "address"
        }
      ],
      "payable": false,
      "stateMutability": "view",
      "type": "function"
    },
    {
      "constant": true,
      "inputs": [
        {
          "name": "",
          "type": "bytes32"
        }
      ],
      "name": "voteExists",
      "outputs": [
        {
          "name": "",
          "type": "bool"
        }
      ],
      "payable": false,
      "stateMutability": "view",
      "type": "function"
    },
    {
      "inputs": [
        {
          "name": "name",
          "type": "string"
        },
        {
          "name": "N",
          "type": "uint256"
        },
        {
          "name": "E",
          "type": "uint256"
        },
        {
          "name": "endPreparationTimestamp",
          "type": "uint256"
        },
        {
          "name": "endRegistrationTimestamp",
          "type": "uint256"
        },
        {
          "name": "endVotingTimestamp",
          "type": "uint256"
        }
      ],
      "payable": false,
      "stateMutability": "nonpayable",
      "type": "constructor"
    },
    {
      "constant": false,
      "inputs": [
        {
          "name": "name",
          "type": "string"
        }
      ],
      "name": "addCandidate",
      "outputs": [],
      "payable": false,
      "stateMutability": "nonpayable",
      "type": "function"
    },
    {
      "constant": false,
      "inputs": [
        {
          "name": "organizerAddress",
          "type": "address"
        },
        {
          "name": "name",
          "type": "string"
        },
        {
          "name": "N",
          "type": "uint256"
        },
        {
          "name": "E",
          "type": "uint256"
        }
      ],
      "name": "addOrganizer",
      "outputs": [],
      "payable": false,
      "stateMutability": "nonpayable",
      "type": "function"
    },
    {
      "constant": false,
      "inputs": [
        {
          "name": "name",
          "type": "string"
        },
        {
          "name": "hashedNIK",
          "type": "bytes32"
        }
      ],
      "name": "registerRequest",
      "outputs": [],
      "payable": false,
      "stateMutability": "nonpayable",
      "type": "function"
    },
    {
      "constant": false,
      "inputs": [
        {
          "name": "index",
          "type": "uint256"
        },
        {
          "name": "hashedNIK",
          "type": "bytes32"
        },
        {
          "name": "voterAddress",
          "type": "address"
        },
        {
          "name": "name",
          "type": "string"
        }
      ],
      "name": "registerVoter",
      "outputs": [],
      "payable": false,
      "stateMutability": "nonpayable",
      "type": "function"
    },
    {
      "constant": false,
      "inputs": [
        {
          "name": "signer",
          "type": "address"
        },
        {
          "name": "blinded",
          "type": "uint256"
        }
      ],
      "name": "requestBlindSig",
      "outputs": [],
      "payable": false,
      "stateMutability": "nonpayable",
      "type": "function"
    },
    {
      "constant": false,
      "inputs": [
        {
          "name": "requester",
          "type": "address"
        },
        {
          "name": "blinded",
          "type": "uint256"
        },
        {
          "name": "signed",
          "type": "uint256"
        }
      ],
      "name": "signBlindSigRequest",
      "outputs": [],
      "payable": false,
      "stateMutability": "nonpayable",
      "type": "function"
    },
    {
      "constant": false,
      "inputs": [
        {
          "name": "voteString",
          "type": "bytes32"
        },
        {
          "name": "unblinded",
          "type": "uint256"
        },
        {
          "name": "signer",
          "type": "address"
        }
      ],
      "name": "vote",
      "outputs": [],
      "payable": false,
      "stateMutability": "nonpayable",
      "type": "function"
    },
    {
      "constant": false,
      "inputs": [
        {
          "name": "votesToTally",
          "type": "uint256"
        }
      ],
      "name": "tally",
      "outputs": [],
      "payable": false,
      "stateMutability": "nonpayable",
      "type": "function"
    },
    {
      "constant": false,
      "inputs": [],
      "name": "endPreparation",
      "outputs": [],
      "payable": false,
      "stateMutability": "nonpayable",
      "type": "function"
    },
    {
      "constant": false,
      "inputs": [],
      "name": "endRegistration",
      "outputs": [],
      "payable": false,
      "stateMutability": "nonpayable",
      "type": "function"
    },
    {
      "constant": false,
      "inputs": [],
      "name": "endVoting",
      "outputs": [],
      "payable": false,
      "stateMutability": "nonpayable",
      "type": "function"
    },
    {
      "constant": false,
      "inputs": [
        {
          "name": "unblinded",
          "type": "uint256"
        },
        {
          "name": "N",
          "type": "uint256"
        },
        {
          "name": "E",
          "type": "uint256"
        },
        {
          "name": "message",
          "type": "bytes32"
        }
      ],
      "name": "verifyBlindSig",
      "outputs": [
        {
          "name": "result",
          "type": "bool"
        }
      ],
      "payable": false,
      "stateMutability": "nonpayable",
      "type": "function"
    }
  ],
  "bytecode": "0x60806040523480156200001157600080fd5b5060405162003fc238038062003fc2833981018060405260c08110156200003757600080fd5b8101908080516401000000008111156200005057600080fd5b828101905060208101848111156200006757600080fd5b81518560018202830111640100000000821117156200008557600080fd5b5050929190602001805190602001909291908051906020019092919080519060200190929190805190602001909291908051906020019092919050505060008060006101000a81548160ff02191690836004811115620000e157fe5b0217905550604051806080016040528087815260200186815260200185815260200160011515815250600760003373ffffffffffffffffffffffffffffffffffffffff1673ffffffffffffffffffffffffffffffffffffffff16815260200190815260200160002060008201518160000190805190602001906200016792919062000238565b50602082015181600101556040820151816002015560608201518160030160006101000a81548160ff02191690831515021790555090505060083390806001815401808255809150509060018203906000526020600020016000909192909190916101000a81548173ffffffffffffffffffffffffffffffffffffffff021916908373ffffffffffffffffffffffffffffffffffffffff16021790555050600960008154809291906001019190505550826001819055508160028190555080600381905550505050505050620002e7565b828054600181600116156101000203166002900490600052602060002090601f016020900481019282601f106200027b57805160ff1916838001178555620002ac565b82800160010185558215620002ac579182015b82811115620002ab5782518255916020019190600101906200028e565b5b509050620002bb9190620002bf565b5090565b620002e491905b80821115620002e0576000816000905550600101620002c6565b5090565b90565b613ccb80620002f76000396000f3fe608060405234801561001057600080fd5b50600436106102115760003560e01c8063683c4b5411610125578063ada78115116100ad578063d103643f1161007c578063d103643f14610d84578063dd0e237314610d8e578063e5a5dc5714610dfc578063ece79b5314610e42578063ed8b6b3114610f3157610211565b8063ada7811514610d12578063c19d93fb14610d30578063c3403ddf14610d5c578063c638407114610d6657610211565b806376124dac116100f457806376124dac14610b01578063834fdefc14610b59578063905434ec14610b77578063a3ec138d14610be5578063a9a981a314610cee57610211565b8063683c4b54146109175780636b0323a2146109355780636d6277f4146109995780637114801a14610a5557610211565b806332368809116101a85780634a8a62ab116101775780634a8a62ab1461080857806353f9c6f1146108125780635df813301461083057806362dbab3e146108b7578063640fad78146108f957610211565b806332368809146105f257806336e96faf1461064057806342169e481461072f578063462e91ec1461074d57610211565b80631d1d1af4116101e45780631d1d1af4146104555780631ea18a4e14610497578063213666a7146104ef57806321d228321461050d57610211565b806303016130146102165780630544c5b91461029c5780631961847b146103725780631ca60c0514610390575b600080fd5b6102426004803603602081101561022c57600080fd5b8101908080359060200190929190505050610f5f565b60405180827effffffffffffffffffffffffffffffffffffffffffffffffffffffffffffff19167effffffffffffffffffffffffffffffffffffffffffffffffffffffffffffff1916815260200191505060405180910390f35b6102de600480360360208110156102b257600080fd5b81019080803573ffffffffffffffffffffffffffffffffffffffff169060200190929190505050610f90565b604051808060200185815260200184815260200183151515158152602001828103825286818151815260200191508051906020019080838360005b83811015610334578082015181840152602081019050610319565b50505050905090810190601f1680156103615780820380516001836020036101000a031916815260200191505b509550505050505060405180910390f35b61037a611065565b6040518082815260200191505060405180910390f35b610453600480360360408110156103a657600080fd5b81019080803590602001906401000000008111156103c357600080fd5b8201836020820111156103d557600080fd5b803590602001918460018302840111640100000000831117156103f757600080fd5b91908080601f016020809104026020016040519081016040528093929190818152602001838380828437600081840152601f19601f8201169050808301925050505050505091929192908035906020019092919050505061106b565b005b6104816004803603602081101561046b57600080fd5b810190808035906020019092919050505061136f565b6040518082815260200191505060405180910390f35b6104ed600480360360608110156104ad57600080fd5b81019080803573ffffffffffffffffffffffffffffffffffffffff1690602001909291908035906020019092919080359060200190929190505050611390565b005b6104f7611791565b6040518082815260200191505060405180910390f35b6105396004803603602081101561052357600080fd5b8101908080359060200190929190505050611797565b604051808473ffffffffffffffffffffffffffffffffffffffff1673ffffffffffffffffffffffffffffffffffffffff1681526020018060200183151515158152602001828103825284818151815260200191508051906020019080838360005b838110156105b557808201518184015260208101905061059a565b50505050905090810190601f1680156105e25780820380516001836020036101000a031916815260200191505b5094505050505060405180910390f35b61063e6004803603604081101561060857600080fd5b81019080803573ffffffffffffffffffffffffffffffffffffffff16906020019092919080359060200190929190505050611886565b005b61072d6004803603608081101561065657600080fd5b810190808035906020019092919080359060200190929190803573ffffffffffffffffffffffffffffffffffffffff169060200190929190803590602001906401000000008111156106a757600080fd5b8201836020820111156106b957600080fd5b803590602001918460018302840111640100000000831117156106db57600080fd5b91908080601f016020809104026020016040519081016040528093929190818152602001838380828437600081840152601f19601f820116905080830192505050505050509192919290505050611c94565b005b610737612052565b6040518082815260200191505060405180910390f35b6108066004803603602081101561076357600080fd5b810190808035906020019064010000000081111561078057600080fd5b82018360208201111561079257600080fd5b803590602001918460018302840111640100000000831117156107b457600080fd5b91908080601f016020809104026020016040519081016040528093929190818152602001838380828437600081840152601f19601f820116905080830192505050505050509192919290505050612058565b005b6108106122cf565b005b61081a6124ab565b6040518082815260200191505060405180910390f35b61085c6004803603602081101561084657600080fd5b81019080803590602001909291905050506124b1565b604051808581526020018481526020018373ffffffffffffffffffffffffffffffffffffffff1673ffffffffffffffffffffffffffffffffffffffff1681526020018215151515815260200194505050505060405180910390f35b6108e3600480360360208110156108cd57600080fd5b810190808035906020019092919050505061251b565b6040518082815260200191505060405180910390f35b61090161253c565b6040518082815260200191505060405180910390f35b61091f612542565b6040518082815260200191505060405180910390f35b61097f6004803603608081101561094b57600080fd5b8101908080359060200190929190803590602001909291908035906020019092919080359060200190929190505050612548565b604051808215151515815260200191505060405180910390f35b6109c8600480360360208110156109af57600080fd5b81019080803560ff169060200190929190505050612595565b604051808060200184815260200183151515158152602001828103825285818151815260200191508051906020019080838360005b83811015610a185780820151818401526020810190506109fd565b50505050905090810190601f168015610a455780820380516001836020036101000a031916815260200191505b5094505050505060405180910390f35b610a8160048036036020811015610a6b57600080fd5b8101908080359060200190929190505050612664565b604051808473ffffffffffffffffffffffffffffffffffffffff1673ffffffffffffffffffffffffffffffffffffffff1681526020018373ffffffffffffffffffffffffffffffffffffffff1673ffffffffffffffffffffffffffffffffffffffff16815260200182151515158152602001935050505060405180910390f35b610b5760048036036060811015610b1757600080fd5b810190808035906020019092919080359060200190929190803573ffffffffffffffffffffffffffffffffffffffff1690602001909291905050506126db565b005b610b616129f9565b6040518082815260200191505060405180910390f35b610ba360048036036020811015610b8d57600080fd5b81019080803590602001909291905050506129ff565b604051808273ffffffffffffffffffffffffffffffffffffffff1673ffffffffffffffffffffffffffffffffffffffff16815260200191505060405180910390f35b610c2760048036036020811015610bfb57600080fd5b81019080803573ffffffffffffffffffffffffffffffffffffffff169060200190929190505050612a3b565b60405180806020018681526020018581526020018473ffffffffffffffffffffffffffffffffffffffff1673ffffffffffffffffffffffffffffffffffffffff16815260200183151515158152602001828103825287818151815260200191508051906020019080838360005b83811015610caf578082015181840152602081019050610c94565b50505050905090810190601f168015610cdc5780820380516001836020036101000a031916815260200191505b50965050505050505060405180910390f35b610cf6612b36565b604051808260ff1660ff16815260200191505060405180910390f35b610d1a612b49565b6040518082815260200191505060405180910390f35b610d38612b4f565b60405180826004811115610d4857fe5b60ff16815260200191505060405180910390f35b610d64612b61565b005b610d6e612d5a565b6040518082815260200191505060405180910390f35b610d8c612d60565b005b610dba60048036036020811015610da457600080fd5b8101908080359060200190929190505050612f3c565b604051808273ffffffffffffffffffffffffffffffffffffffff1673ffffffffffffffffffffffffffffffffffffffff16815260200191505060405180910390f35b610e2860048036036020811015610e1257600080fd5b8101908080359060200190929190505050612f78565b604051808215151515815260200191505060405180910390f35b610f2f60048036036080811015610e5857600080fd5b81019080803573ffffffffffffffffffffffffffffffffffffffff16906020019092919080359060200190640100000000811115610e9557600080fd5b820183602082011115610ea757600080fd5b80359060200191846001830284011164010000000083111715610ec957600080fd5b91908080601f016020809104026020016040519081016040528093929190818152602001838380828437600081840152601f19601f8201169050808301925050505050505091929192908035906020019092919080359060200190929190505050612f98565b005b610f5d60048036036020811015610f4757600080fd5b81019080803590602001909291905050506132ec565b005b60058181548110610f6c57fe5b9060005260206000209060209182820401919006915054906101000a900460f81b81565b6007602052806000526040600020600091509050806000018054600181600116156101000203166002900480601f01602080910402602001604051908101604052809291908181526020018280546001816001161561010002031660029004801561103c5780601f106110115761010080835404028352916020019161103c565b820191906000526020600020905b81548152906001019060200180831161101f57829003601f168201915b5050505050908060010154908060020154908060030160009054906101000a900460ff16905084565b60035481565b6001600481111561107857fe5b6000809054906101000a900460ff16600481111561109257fe5b14611105576040517f08c379a00000000000000000000000000000000000000000000000000000000081526004018080602001828103825260198152602001807f5374617465206973206e6f7420726567697374726174696f6e0000000000000081525060200191505060405180910390fd5b600a60003373ffffffffffffffffffffffffffffffffffffffff1673ffffffffffffffffffffffffffffffffffffffff16815260200190815260200160002060030160149054906101000a900460ff16156111c8576040517f08c379a000000000000000000000000000000000000000000000000000000000815260040180806020018281038252601b8152602001807f566f74657220697320616c72656164792072656769737465726564000000000081525060200191505060405180910390fd5b600d600082815260200190815260200160002060020160009054906101000a900460ff161561125f576040517f08c379a000000000000000000000000000000000000000000000000000000000815260040180806020018281038252601f8152602001807f5265676973746572207265717565737420616c7265616479206578697374730081525060200191505060405180910390fd5b60405180606001604052803373ffffffffffffffffffffffffffffffffffffffff16815260200183815260200160011515815250600d600083815260200190815260200160002060008201518160000160006101000a81548173ffffffffffffffffffffffffffffffffffffffff021916908373ffffffffffffffffffffffffffffffffffffffff1602179055506020820151816001019080519060200190611309929190613aef565b5060408201518160020160006101000a81548160ff021916908315150217905550905050600e819080600181540180825580915050906001820390600052602060002001600090919290919091505550600f600081548092919060010191905055505050565b600e818154811061137c57fe5b906000526020600020016000915090505481565b600760003373ffffffffffffffffffffffffffffffffffffffff1673ffffffffffffffffffffffffffffffffffffffff16815260200190815260200160002060030160009054906101000a900460ff16611452576040517f08c379a00000000000000000000000000000000000000000000000000000000081526004018080602001828103825260108152602001807f4e6f7420616e206f7267616e697a65720000000000000000000000000000000081525060200191505060405180910390fd5b6002600481111561145f57fe5b6000809054906101000a900460ff16600481111561147957fe5b146114ec576040517f08c379a00000000000000000000000000000000000000000000000000000000081526004018080602001828103825260138152602001807f5374617465206973206e6f7420766f74696e670000000000000000000000000081525060200191505060405180910390fd5b600073ffffffffffffffffffffffffffffffffffffffff166010600084815260200190815260200160002060000160009054906101000a900473ffffffffffffffffffffffffffffffffffffffff1673ffffffffffffffffffffffffffffffffffffffff1614156115c5576040517f08c379a00000000000000000000000000000000000000000000000000000000081526004018080602001828103825260148152602001807f426c696e6420646f6573206e6f7420657869737400000000000000000000000081525060200191505060405180910390fd5b3373ffffffffffffffffffffffffffffffffffffffff166010600084815260200190815260200160002060010160009054906101000a900473ffffffffffffffffffffffffffffffffffffffff1673ffffffffffffffffffffffffffffffffffffffff161461167f576040517f08c379a0000000000000000000000000000000000000000000000000000000008152600401808060200182810382526026815260200180613be66026913960400191505060405180910390fd5b6010600083815260200190815260200160002060010160149054906101000a900460ff1615611716576040517f08c379a00000000000000000000000000000000000000000000000000000000081526004018080602001828103825260198152602001807f5265717565737420697320616c7265616479207369676e65640000000000000081525060200191505060405180910390fd5b60016010600084815260200190815260200160002060010160146101000a81548160ff02191690831515021790555080600a60008573ffffffffffffffffffffffffffffffffffffffff1673ffffffffffffffffffffffffffffffffffffffff16815260200190815260200160002060020181905550505050565b60165481565b600d6020528060005260406000206000915090508060000160009054906101000a900473ffffffffffffffffffffffffffffffffffffffff1690806001018054600181600116156101000203166002900480601f0160208091040260200160405190810160405280929190818152602001828054600181600116156101000203166002900480156118695780601f1061183e57610100808354040283529160200191611869565b820191906000526020600020905b81548152906001019060200180831161184c57829003601f168201915b5050505050908060020160009054906101000a900460ff16905083565b600073ffffffffffffffffffffffffffffffffffffffff16600a60003373ffffffffffffffffffffffffffffffffffffffff1673ffffffffffffffffffffffffffffffffffffffff16815260200190815260200160002060030160009054906101000a900473ffffffffffffffffffffffffffffffffffffffff1673ffffffffffffffffffffffffffffffffffffffff16141561198b576040517f08c379a000000000000000000000000000000000000000000000000000000000815260040180806020018281038252600b8152602001807f4e6f74206120766f74657200000000000000000000000000000000000000000081525060200191505060405180910390fd5b6002600481111561199857fe5b6000809054906101000a900460ff1660048111156119b257fe5b14611a25576040517f08c379a00000000000000000000000000000000000000000000000000000000081526004018080602001828103825260138152602001807f5374617465206973206e6f7420766f74696e670000000000000000000000000081525060200191505060405180910390fd5b600073ffffffffffffffffffffffffffffffffffffffff166010600083815260200190815260200160002060000160009054906101000a900473ffffffffffffffffffffffffffffffffffffffff1673ffffffffffffffffffffffffffffffffffffffff1614611afd576040517f08c379a000000000000000000000000000000000000000000000000000000000815260040180806020018281038252600c8152602001807f426c696e6420657869737473000000000000000000000000000000000000000081525060200191505060405180910390fd5b60405180606001604052803373ffffffffffffffffffffffffffffffffffffffff1681526020018373ffffffffffffffffffffffffffffffffffffffff168152602001600015158152506010600083815260200190815260200160002060008201518160000160006101000a81548173ffffffffffffffffffffffffffffffffffffffff021916908373ffffffffffffffffffffffffffffffffffffffff16021790555060208201518160010160006101000a81548173ffffffffffffffffffffffffffffffffffffffff021916908373ffffffffffffffffffffffffffffffffffffffff16021790555060408201518160010160146101000a81548160ff021916908315150217905550905050601181908060018154018082558091505090600182039060005260206000200160009091929091909150555060126000815480929190600101919050555080600a60003373ffffffffffffffffffffffffffffffffffffffff1673ffffffffffffffffffffffffffffffffffffffff168152602001908152602001600020600101819055505050565b600760003373ffffffffffffffffffffffffffffffffffffffff1673ffffffffffffffffffffffffffffffffffffffff16815260200190815260200160002060030160009054906101000a900460ff16611d56576040517f08c379a00000000000000000000000000000000000000000000000000000000081526004018080602001828103825260108152602001807f4e6f7420616e206f7267616e697a65720000000000000000000000000000000081525060200191505060405180910390fd5b60016004811115611d6357fe5b6000809054906101000a900460ff166004811115611d7d57fe5b14611df0576040517f08c379a00000000000000000000000000000000000000000000000000000000081526004018080602001828103825260198152602001807f5374617465206973206e6f7420726567697374726174696f6e0000000000000081525060200191505060405180910390fd5b600e805490508410611e6a576040517f08c379a00000000000000000000000000000000000000000000000000000000081526004018080602001828103825260198152602001807f496e646578206f7574206f6620617272617920626f756e64730000000000000081525060200191505060405180910390fd5b82600e8581548110611e7857fe5b906000526020600020015414611ef6576040517f08c379a00000000000000000000000000000000000000000000000000000000081526004018080602001828103825260148152602001807f57726f6e6720726567697374657220696e64657800000000000000000000000081525060200191505060405180910390fd5b600d600084815260200190815260200160002060020160009054906101000a900460ff16611f8c576040517f08c379a000000000000000000000000000000000000000000000000000000000815260040180806020018281038252601f8152602001807f5265676973746572207265717565737420646f6573206e6f742065786973740081525060200191505060405180910390fd5b6000600d600085815260200190815260200160002060020160006101000a81548160ff021916908315150217905550600e6001600e805490500381548110611fd057fe5b9060005260206000200154600e8581548110611fe857fe5b9060005260206000200181905550600e6001600e80549050038154811061200b57fe5b9060005260206000200160009055600e80548091906001900361202e9190613b6f565b50600f600081548092919060019003919050555061204c82826135a4565b50505050565b600c5481565b600760003373ffffffffffffffffffffffffffffffffffffffff1673ffffffffffffffffffffffffffffffffffffffff16815260200190815260200160002060030160009054906101000a900460ff1661211a576040517f08c379a00000000000000000000000000000000000000000000000000000000081526004018080602001828103825260108152602001807f4e6f7420616e206f7267616e697a65720000000000000000000000000000000081525060200191505060405180910390fd5b6000600481111561212757fe5b6000809054906101000a900460ff16600481111561214157fe5b146121b4576040517f08c379a00000000000000000000000000000000000000000000000000000000081526004018080602001828103825260188152602001807f5374617465206973206e6f74207072657061726174696f6e000000000000000081525060200191505060405180910390fd5b604051806060016040528082815260200160008152602001600115158152506004600060058054905060ff1660ff168152602001908152602001600020600082015181600001908051906020019061220d929190613aef565b506020820151816001015560408201518160020160006101000a81548160ff0219169083151502179055509050506005808054905060001b601f6020811061225157fe5b1a60f81b908060018154018082558091505090600182039060005260206000209060209182820401919006909192909190916101000a81548160ff021916908360f81c0217905550506006600081819054906101000a900460ff168092919060010191906101000a81548160ff021916908360ff1602179055505050565b600760003373ffffffffffffffffffffffffffffffffffffffff1673ffffffffffffffffffffffffffffffffffffffff16815260200190815260200160002060030160009054906101000a900460ff16612391576040517f08c379a00000000000000000000000000000000000000000000000000000000081526004018080602001828103825260108152602001807f4e6f7420616e206f7267616e697a65720000000000000000000000000000000081525060200191505060405180910390fd5b6001600481111561239e57fe5b6000809054906101000a900460ff1660048111156123b857fe5b1461242b576040517f08c379a00000000000000000000000000000000000000000000000000000000081526004018080602001828103825260198152602001807f5374617465206973206e6f7420726567697374726174696f6e0000000000000081525060200191505060405180910390fd5b600254421015612486576040517f08c379a0000000000000000000000000000000000000000000000000000000008152600401808060200182810382526023815260200180613c7d6023913960400191505060405180910390fd5b60026000806101000a81548160ff021916908360048111156124a457fe5b0217905550565b60025481565b601381815481106124be57fe5b90600052602060002090600302016000915090508060000154908060010154908060020160009054906101000a900473ffffffffffffffffffffffffffffffffffffffff16908060020160149054906101000a900460ff16905084565b6011818154811061252857fe5b906000526020600020016000915090505481565b60125481565b60015481565b60008061255686858761389a565b60001b90506000836040516020018082815260200191505060405160208183030381529060405280519060200120905081811492505050949350505050565b6004602052806000526040600020600091509050806000018054600181600116156101000203166002900480601f0160208091040260200160405190810160405280929190818152602001828054600181600116156101000203166002900480156126415780601f1061261657610100808354040283529160200191612641565b820191906000526020600020905b81548152906001019060200180831161262457829003601f168201915b5050505050908060010154908060020160009054906101000a900460ff16905083565b60106020528060005260406000206000915090508060000160009054906101000a900473ffffffffffffffffffffffffffffffffffffffff16908060010160009054906101000a900473ffffffffffffffffffffffffffffffffffffffff16908060010160149054906101000a900460ff16905083565b600260048111156126e857fe5b6000809054906101000a900460ff16600481111561270257fe5b14612775576040517f08c379a00000000000000000000000000000000000000000000000000000000081526004018080602001828103825260138152602001807f5374617465206973206e6f7420766f74696e670000000000000000000000000081525060200191505060405180910390fd5b600a60003373ffffffffffffffffffffffffffffffffffffffff1673ffffffffffffffffffffffffffffffffffffffff16815260200190815260200160002060030160149054906101000a900460ff161561281b576040517f08c379a0000000000000000000000000000000000000000000000000000000008152600401808060200182810382526022815260200180613c2e6022913960400191505060405180910390fd5b6015600084815260200190815260200160002060009054906101000a900460ff16156128af576040517f08c379a00000000000000000000000000000000000000000000000000000000081526004018080602001828103825260128152602001807f566f746520737472696e6720657869737473000000000000000000000000000081525060200191505060405180910390fd5b600083604051602001808281526020019150506040516020818303038152906040528051906020012090506000600760008473ffffffffffffffffffffffffffffffffffffffff1673ffffffffffffffffffffffffffffffffffffffff1681526020019081526020016000206001015490506000600760008573ffffffffffffffffffffffffffffffffffffffff1673ffffffffffffffffffffffffffffffffffffffff16815260200190815260200160002060020154905061297485838386612548565b6129e6576040517f08c379a000000000000000000000000000000000000000000000000000000000815260040180806020018281038252601c8152602001807f426c696e64207369676e617475726520697320696e636f72726563740000000081525060200191505060405180910390fd5b6129f18686866138f3565b505050505050565b60095481565b60088181548110612a0c57fe5b906000526020600020016000915054906101000a900473ffffffffffffffffffffffffffffffffffffffff1681565b600a602052806000526040600020600091509050806000018054600181600116156101000203166002900480601f016020809104026020016040519081016040528092919081815260200182805460018160011615610100020316600290048015612ae75780601f10612abc57610100808354040283529160200191612ae7565b820191906000526020600020905b815481529060010190602001808311612aca57829003601f168201915b5050505050908060010154908060020154908060030160009054906101000a900473ffffffffffffffffffffffffffffffffffffffff16908060030160149054906101000a900460ff16905085565b600660009054906101000a900460ff1681565b600f5481565b6000809054906101000a900460ff1681565b600760003373ffffffffffffffffffffffffffffffffffffffff1673ffffffffffffffffffffffffffffffffffffffff16815260200190815260200160002060030160009054906101000a900460ff16612c23576040517f08c379a00000000000000000000000000000000000000000000000000000000081526004018080602001828103825260108152602001807f4e6f7420616e206f7267616e697a65720000000000000000000000000000000081525060200191505060405180910390fd5b60026004811115612c3057fe5b6000809054906101000a900460ff166004811115612c4a57fe5b14612cbd576040517f08c379a00000000000000000000000000000000000000000000000000000000081526004018080602001828103825260138152602001807f5374617465206973206e6f7420766f74696e670000000000000000000000000081525060200191505060405180910390fd5b600354421015612d35576040517f08c379a000000000000000000000000000000000000000000000000000000000815260040180806020018281038252601d8152602001807f566f74696e672074696d6520686173206e6f7420656e6465642079657400000081525060200191505060405180910390fd5b60036000806101000a81548160ff02191690836004811115612d5357fe5b0217905550565b60145481565b600760003373ffffffffffffffffffffffffffffffffffffffff1673ffffffffffffffffffffffffffffffffffffffff16815260200190815260200160002060030160009054906101000a900460ff16612e22576040517f08c379a00000000000000000000000000000000000000000000000000000000081526004018080602001828103825260108152602001807f4e6f7420616e206f7267616e697a65720000000000000000000000000000000081525060200191505060405180910390fd5b60006004811115612e2f57fe5b6000809054906101000a900460ff166004811115612e4957fe5b14612ebc576040517f08c379a00000000000000000000000000000000000000000000000000000000081526004018080602001828103825260188152602001807f5374617465206973206e6f74207072657061726174696f6e000000000000000081525060200191505060405180910390fd5b600154421015612f17576040517f08c379a0000000000000000000000000000000000000000000000000000000008152600401808060200182810382526022815260200180613c0c6022913960400191505060405180910390fd5b60016000806101000a81548160ff02191690836004811115612f3557fe5b0217905550565b600b8181548110612f4957fe5b906000526020600020016000915054906101000a900473ffffffffffffffffffffffffffffffffffffffff1681565b60156020528060005260406000206000915054906101000a900460ff1681565b600760003373ffffffffffffffffffffffffffffffffffffffff1673ffffffffffffffffffffffffffffffffffffffff16815260200190815260200160002060030160009054906101000a900460ff1661305a576040517f08c379a00000000000000000000000000000000000000000000000000000000081526004018080602001828103825260108152602001807f4e6f7420616e206f7267616e697a65720000000000000000000000000000000081525060200191505060405180910390fd5b6000600481111561306757fe5b6000809054906101000a900460ff16600481111561308157fe5b146130f4576040517f08c379a00000000000000000000000000000000000000000000000000000000081526004018080602001828103825260188152602001807f5374617465206973206e6f74207072657061726174696f6e000000000000000081525060200191505060405180910390fd5b600760008573ffffffffffffffffffffffffffffffffffffffff1673ffffffffffffffffffffffffffffffffffffffff16815260200190815260200160002060030160009054906101000a900460ff16156131b7576040517f08c379a00000000000000000000000000000000000000000000000000000000081526004018080602001828103825260188152602001807f4f7267616e697a657220616c726561647920657869737473000000000000000081525060200191505060405180910390fd5b604051806080016040528084815260200183815260200182815260200160011515815250600760008673ffffffffffffffffffffffffffffffffffffffff1673ffffffffffffffffffffffffffffffffffffffff1681526020019081526020016000206000820151816000019080519060200190613236929190613aef565b50602082015181600101556040820151816002015560608201518160030160006101000a81548160ff02191690831515021790555090505060088490806001815401808255809150509060018203906000526020600020016000909192909190916101000a81548173ffffffffffffffffffffffffffffffffffffffff021916908373ffffffffffffffffffffffffffffffffffffffff1602179055505060096000815480929190600101919050555050505050565b600760003373ffffffffffffffffffffffffffffffffffffffff1673ffffffffffffffffffffffffffffffffffffffff16815260200190815260200160002060030160009054906101000a900460ff166133ae576040517f08c379a00000000000000000000000000000000000000000000000000000000081526004018080602001828103825260108152602001807f4e6f7420616e206f7267616e697a65720000000000000000000000000000000081525060200191505060405180910390fd5b600360048111156133bb57fe5b6000809054906101000a900460ff1660048111156133d557fe5b14613448576040517f08c379a00000000000000000000000000000000000000000000000000000000081526004018080602001828103825260158152602001807f5374617465206973206e6f742074616c6c79696e67000000000000000000000081525060200191505060405180910390fd5b601380549050600182601654010311156134ad576040517f08c379a000000000000000000000000000000000000000000000000000000000815260040180806020018281038252602d815260200180613c50602d913960400191505060405180910390fd5b6000601654905060006001836016540103905060008290505b818111613586576000601382815481106134dc57fe5b9060005260206000209060030201600001546000602081106134fa57fe5b1a60f81b60f81c9050600460008260ff1660ff1681526020019081526020016000206001016000815480929190600101919050555060016013838154811061353e57fe5b906000526020600020906003020160020160146101000a81548160ff0219169083151502179055506016600081548092919060010191905055505080806001019150506134c6565b50601380549050601654141561359f5761359e613aca565b5b505050565b600160048111156135b157fe5b6000809054906101000a900460ff1660048111156135cb57fe5b1461363e576040517f08c379a00000000000000000000000000000000000000000000000000000000081526004018080602001828103825260198152602001807f5374617465206973206e6f7420726567697374726174696f6e0000000000000081525060200191505060405180910390fd5b600a60008373ffffffffffffffffffffffffffffffffffffffff1673ffffffffffffffffffffffffffffffffffffffff16815260200190815260200160002060030160149054906101000a900460ff1615613701576040517f08c379a000000000000000000000000000000000000000000000000000000000815260040180806020018281038252601b8152602001807f566f74657220697320616c72656164792072656769737465726564000000000081525060200191505060405180910390fd5b6040518060a001604052808281526020016000815260200160008152602001600073ffffffffffffffffffffffffffffffffffffffff16815260200160011515815250600a60008473ffffffffffffffffffffffffffffffffffffffff1673ffffffffffffffffffffffffffffffffffffffff168152602001908152602001600020600082015181600001908051906020019061379f929190613aef565b50602082015181600101556040820151816002015560608201518160030160006101000a81548173ffffffffffffffffffffffffffffffffffffffff021916908373ffffffffffffffffffffffffffffffffffffffff16021790555060808201518160030160146101000a81548160ff021916908315150217905550905050600b8290806001815401808255809150509060018203906000526020600020016000909192909190916101000a81548173ffffffffffffffffffffffffffffffffffffffff021916908373ffffffffffffffffffffffffffffffffffffffff16021790555050600c600081548092919060010191905055505050565b600060405160208152602080820152602060408201528460608201528360808201528260a082015260208160c083600060056107d05a03f180600081146138e0576138e5565b600080fd5b508151925050509392505050565b600460008460006020811061390457fe5b1a60f81b60f81c60ff1660ff16815260200190815260200160002060020160009054906101000a900460ff166139a2576040517f08c379a00000000000000000000000000000000000000000000000000000000081526004018080602001828103825260148152602001807f496e76616c69642063616e64696461746520696400000000000000000000000081525060200191505060405180910390fd5b601360405180608001604052808581526020018481526020018373ffffffffffffffffffffffffffffffffffffffff1681526020016000151581525090806001815401808255809150509060018203906000526020600020906003020160009091929091909150600082015181600001556020820151816001015560408201518160020160006101000a81548173ffffffffffffffffffffffffffffffffffffffff021916908373ffffffffffffffffffffffffffffffffffffffff16021790555060608201518160020160146101000a81548160ff02191690831515021790555050505060146000815480929190600101919050555060016015600085815260200190815260200160002060006101000a81548160ff021916908315150217905550505050565b60046000806101000a81548160ff02191690836004811115613ae857fe5b0217905550565b828054600181600116156101000203166002900490600052602060002090601f016020900481019282601f10613b3057805160ff1916838001178555613b5e565b82800160010185558215613b5e579182015b82811115613b5d578251825591602001919060010190613b42565b5b509050613b6b9190613b9b565b5090565b815481835581811115613b9657818360005260206000209182019101613b959190613bc0565b5b505050565b613bbd91905b80821115613bb9576000816000905550600101613ba1565b5090565b90565b613be291905b80821115613bde576000816000905550600101613bc6565b5090565b9056fe4f7267616e697a6572206973206e6f74207468652064657369676e61746564207369676e65725072657061726174696f6e2074696d6520686173206e6f7420656e64656420796574566f74652073656e646572206973207265676973746572656420617320766f746572417474656d7074696e6720746f2074616c6c79206d6f7265207468616e20756e636f756e74656420766f746573526567697374726174696f6e2074696d6520686173206e6f7420656e64656420796574a165627a7a723058201be70c820822d874db375b4c8f53d49dfd936212ca9312fee08380f3c7a3ce8a0029",
  "source": "pragma solidity ^0.5.8;\r\n\r\ncontract VotingContract {\r\n    // Variables\r\n    enum State {\r\n        Preparation,\r\n        Registration,\r\n        Voting,\r\n        Tallying,\r\n        Finished\r\n    }\r\n    State public state;\r\n    uint256 public endPreparationTime;\r\n    uint256 public endRegistrationTime;\r\n    uint256 public endVotingTime;\r\n\r\n    struct Candidate {\r\n        string name;\r\n        uint256 voteCount;\r\n        bool exists;\r\n    }\r\n    mapping(uint8 => Candidate) public candidates; // uint8 candidateId (bytes1) to Candidate\r\n    bytes1[] public candidateIds;\r\n    uint8 public candidateCount;\r\n\r\n    struct Organizer {\r\n        string name;\r\n        uint256 N;\r\n        uint256 E;\r\n        bool exists;\r\n    }\r\n    mapping(address => Organizer) public organizers;\r\n    address[] public organizerAddresses;\r\n    uint256 public organizerCount;\r\n\r\n    struct Voter {\r\n        string name;\r\n        uint256 blinded;\r\n        uint256 signed;\r\n        address signer;\r\n        bool exists;\r\n    }\r\n    mapping(address => Voter) public voters;\r\n    address[] public voterAddresses;\r\n    uint256 public voterCount;\r\n\r\n    struct RegisterRequest {\r\n        address registrarAddress;\r\n        string name;\r\n        bool exists;\r\n    }\r\n    mapping(bytes32 => RegisterRequest) public registerRequests; // bytes32 hashedNIK to RegisterRequest\r\n    bytes32[] public registers;\r\n    uint256 public registerCount;\r\n\r\n    struct BlindSigRequest {\r\n        address requester;\r\n        address signer;\r\n        bool signed;\r\n    }\r\n    mapping(uint256 => BlindSigRequest) public blindSigRequests;\r\n    uint256[] public blinds;\r\n    uint256 public blindCount;\r\n\r\n    struct Vote {\r\n        bytes32 voteString;\r\n        uint256 unblinded;\r\n        address signer;\r\n        bool counted;\r\n    }\r\n    Vote[] public votes;\r\n    uint256 public voteCount;\r\n    mapping(bytes32 => bool) public voteExists; // bytes32 voteString to bool\r\n    uint256 public countedVotes;\r\n\r\n    // Events\r\n\r\n    // Functions\r\n    constructor(\r\n        string memory name,\r\n        uint256 N,\r\n        uint256 E,\r\n        uint256 endPreparationTimestamp,\r\n        uint256 endRegistrationTimestamp,\r\n        uint256 endVotingTimestamp\r\n    )\r\n        public\r\n    {\r\n        state = State.Preparation;\r\n        organizers[msg.sender] = Organizer(\r\n            name,\r\n            N,\r\n            E,\r\n            true\r\n        );\r\n        organizerAddresses.push(msg.sender);\r\n        organizerCount++;\r\n        endPreparationTime = endPreparationTimestamp;\r\n        endRegistrationTime = endRegistrationTimestamp;\r\n        endVotingTime = endVotingTimestamp;\r\n    }\r\n\r\n    modifier onlyOrganizer {\r\n        require(organizers[msg.sender].exists, \"Not an organizer\");\r\n        _;\r\n    }\r\n\r\n    modifier onlyVoter {\r\n        require(voters[msg.sender].signer != address(0), \"Not a voter\");\r\n        _;\r\n    }\r\n    // fallback function (if exists)\r\n    // external\r\n    // public\r\n    function addCandidate(\r\n        string memory name\r\n    )\r\n        public\r\n        onlyOrganizer\r\n    {\r\n        require(state == State.Preparation, \"State is not preparation\");\r\n        candidates[uint8(candidateIds.length)] = Candidate(\r\n            name,\r\n            0,\r\n            true\r\n        );\r\n        candidateIds.push(bytes32(candidateIds.length)[31]);\r\n        candidateCount++;\r\n    }\r\n\r\n    function addOrganizer(\r\n        address organizerAddress,\r\n        string memory name,\r\n        uint256 N,\r\n        uint256 E\r\n    )\r\n        public\r\n        onlyOrganizer\r\n    {\r\n        require(state == State.Preparation, \"State is not preparation\");\r\n        require(!organizers[organizerAddress].exists, \"Organizer already exists\");\r\n        organizers[organizerAddress] = Organizer(\r\n            name,\r\n            N,\r\n            E,\r\n            true\r\n        );\r\n        organizerAddresses.push(organizerAddress);\r\n        organizerCount++;\r\n    }\r\n\r\n    function registerRequest(\r\n        string memory name,\r\n        bytes32 hashedNIK\r\n    )\r\n        public\r\n    {\r\n        require(state == State.Registration, \"State is not registration\");\r\n        require(!voters[msg.sender].exists, \"Voter is already registered\");\r\n        require(!registerRequests[hashedNIK].exists, \"Register request already exists\");\r\n        registerRequests[hashedNIK] = RegisterRequest(msg.sender, name, true);\r\n        registers.push(hashedNIK);\r\n        registerCount++;\r\n    }\r\n\r\n    function registerVoter(\r\n        uint256 index,\r\n        bytes32 hashedNIK,\r\n        address voterAddress,\r\n        string memory name\r\n    )\r\n        public\r\n        onlyOrganizer\r\n    {\r\n        require(state == State.Registration, \"State is not registration\");\r\n        require(index < registers.length, \"Index out of array bounds\");\r\n        require(registers[index] == hashedNIK, \"Wrong register index\");\r\n        require(registerRequests[hashedNIK].exists, \"Register request does not exist\");\r\n        registerRequests[hashedNIK].exists = false;\r\n        // \"Delete\" registers array at index by swapping the last element\r\n        registers[index] = registers[registers.length-1];\r\n        delete registers[registers.length-1];\r\n        registers.length--;\r\n        registerCount--;\r\n\r\n        addVoter(voterAddress, name);\r\n    }\r\n\r\n    function requestBlindSig(\r\n        address signer,\r\n        uint256 blinded\r\n    )\r\n        public\r\n        onlyVoter\r\n    {\r\n        require(state == State.Voting, \"State is not voting\");\r\n        require(blindSigRequests[blinded].requester == address(0), \"Blind exists\");\r\n        blindSigRequests[blinded] = BlindSigRequest(\r\n            msg.sender,\r\n            signer,\r\n            false\r\n        );\r\n        blinds.push(blinded);\r\n        blindCount++;\r\n        voters[msg.sender].blinded = blinded;\r\n    }\r\n\r\n    function signBlindSigRequest(\r\n        address requester,\r\n        uint256 blinded,\r\n        uint256 signed\r\n    )\r\n        public\r\n        onlyOrganizer\r\n    {\r\n        require(state == State.Voting, \"State is not voting\");\r\n        require(blindSigRequests[blinded].requester != address(0), \"Blind does not exist\");\r\n        require(blindSigRequests[blinded].signer == msg.sender, \"Organizer is not the designated signer\");\r\n        require(!blindSigRequests[blinded].signed, \"Request is already signed\");\r\n        blindSigRequests[blinded].signed = true;\r\n        voters[requester].signed = signed;\r\n    }\r\n\r\n    function vote(\r\n        bytes32 voteString,\r\n        uint256 unblinded,\r\n        address signer\r\n    )\r\n        public\r\n    {\r\n        require(state == State.Voting, \"State is not voting\");\r\n        // Make sure voter is not using its registered account\r\n        require(!voters[msg.sender].exists, \"Vote sender is registered as voter\");\r\n        // Check if voteString has been used\r\n        require(!voteExists[voteString], \"Vote string exists\");\r\n\r\n        // Verify voteString with unblinded if its signed by signer\r\n        bytes32 message = keccak256(abi.encode(voteString));\r\n        uint256 N = organizers[signer].N;\r\n        uint256 E = organizers[signer].E;\r\n        require(verifyBlindSig(unblinded, N, E, message), \"Blind signature is incorrect\");\r\n\r\n        // Store the votes\r\n        addVote(voteString, unblinded, signer);\r\n    }\r\n\r\n    function tally(uint256 votesToTally) public onlyOrganizer {\r\n        require(state == State.Tallying, \"State is not tallying\");\r\n        require(countedVotes + votesToTally - 1 <= votes.length, \"Attempting to tally more than uncounted votes\");\r\n\r\n        uint256 startIndex = countedVotes;\r\n        uint256 endIndex = countedVotes + votesToTally - 1;\r\n        for (uint256 i = startIndex; i <= endIndex; i++) {\r\n            // get votes[i]\r\n            uint8 candidateId = uint8(votes[i].voteString[0]);\r\n            // check candidateId from votes[i].voteString\r\n            candidates[candidateId].voteCount++;\r\n            // Mark vote as counted\r\n            votes[i].counted = true;\r\n            // candidate[candidateId].voteCount++\r\n            countedVotes++;\r\n        }\r\n\r\n        if (countedVotes == votes.length) {\r\n            endTally();\r\n        }\r\n    }\r\n\r\n    function endPreparation() public onlyOrganizer {\r\n        require(state == State.Preparation, \"State is not preparation\");\r\n        require(block.timestamp >= endPreparationTime, \"Preparation time has not ended yet\");\r\n        state = State.Registration;\r\n    }\r\n\r\n    function endRegistration() public onlyOrganizer {\r\n        require(state == State.Registration, \"State is not registration\");\r\n        require(block.timestamp >= endRegistrationTime, \"Registration time has not ended yet\");\r\n        state = State.Voting;\r\n    }\r\n\r\n    function endVoting() public onlyOrganizer {\r\n        require(state == State.Voting, \"State is not voting\");\r\n        require(block.timestamp >= endVotingTime, \"Voting time has not ended yet\");\r\n        state = State.Tallying;\r\n    }\r\n    // internal\r\n    // private\r\n    function addVoter(\r\n        address voterAddress,\r\n        string memory name\r\n    )\r\n        private\r\n    {\r\n        require(state == State.Registration, \"State is not registration\");\r\n        require(!voters[voterAddress].exists, \"Voter is already registered\");\r\n        voters[voterAddress] = Voter(\r\n            name,\r\n            uint256(0),\r\n            uint256(0),\r\n            address(0),\r\n            true\r\n        );\r\n        voterAddresses.push(voterAddress);\r\n        voterCount++;\r\n    }\r\n\r\n    function verifyBlindSig(\r\n        uint256 unblinded,\r\n        uint256 N,\r\n        uint256 E,\r\n        bytes32 message\r\n    )\r\n        public\r\n        returns (bool result)\r\n    {\r\n        bytes32 originalMessage = bytes32(expmod(unblinded, E, N));\r\n        bytes32 hashMessage = keccak256(abi.encode(message));\r\n        result = hashMessage == originalMessage;\r\n    }\r\n\r\n    function endTally() private {\r\n        state = State.Finished;\r\n    }\r\n\r\n    function addVote(\r\n        bytes32 voteString,\r\n        uint256 unblinded,\r\n        address signer\r\n    )\r\n        private\r\n    {\r\n        // Check if candidateId from voteString is correct\r\n        require(candidates[uint8(voteString[0])].exists, \"Invalid candidate id\");\r\n        votes.push(Vote(voteString, unblinded, signer, false));\r\n        voteCount++;\r\n        voteExists[voteString] = true;\r\n    }\r\n\r\n    // Source : https://medium.com/@rbkhmrcr/precompiles-solidity-e5d29bd428c4\r\n    // Calling expmod precompile\r\n    function expmod(uint256 base, uint256 e, uint256 m) private returns (uint256 o) {\r\n    // are all of these inside the precompile now?\r\n\r\n    assembly {\r\n        // define pointer\r\n        let p := mload(0x40)\r\n        // store data assembly-favouring ways\r\n        mstore(p, 0x20)             // Length of Base\r\n        mstore(add(p, 0x20), 0x20)  // Length of Exponent\r\n        mstore(add(p, 0x40), 0x20)  // Length of Modulus\r\n        mstore(add(p, 0x60), base)  // Base\r\n        mstore(add(p, 0x80), e)     // Exponent\r\n        mstore(add(p, 0xa0), m)     // Modulus\r\n        // call modexp precompile! -- old school gas handling\r\n        let success := call(sub(gas, 2000), 0x05, 0, p, 0xc0, p, 0x20)\r\n        // gas fiddling\r\n        switch success case 0 {\r\n            revert(0, 0)\r\n        }\r\n        // data\r\n        o := mload(p)\r\n        }\r\n    }\r\n}",
  "sourcePath": "E:/Development/Projects/BlockchainVoting/contracts/VotingContract.sol",
  "compiler": {
    "name": "solc",
    "version": "0.5.8+commit.23d335f2.Emscripten.clang"
  },
  "schemaVersion": "3.0.9",
  "updatedAt": "2019-06-06T14:42:52.497Z",
  "devdoc": {
    "methods": {}
  },
  "userdoc": {
    "methods": {}
  }
}