{
  "contractName": "VotingContract",
  "abi": [
    {
      "constant": true,
      "inputs": [
        {
          "name": "",
          "type": "uint256"
        }
      ],
      "name": "candidateIds",
      "outputs": [
        {
          "name": "",
          "type": "bytes1"
        }
      ],
      "payable": false,
      "stateMutability": "view",
      "type": "function"
    },
    {
      "constant": true,
      "inputs": [],
      "name": "endVotingTime",
      "outputs": [
        {
          "name": "",
          "type": "uint256"
        }
      ],
      "payable": false,
      "stateMutability": "view",
      "type": "function"
    },
    {
      "constant": true,
      "inputs": [],
      "name": "countedVotes",
      "outputs": [
        {
          "name": "",
          "type": "uint256"
        }
      ],
      "payable": false,
      "stateMutability": "view",
      "type": "function"
    },
    {
      "constant": true,
      "inputs": [],
      "name": "endRegistrationTime",
      "outputs": [
        {
          "name": "",
          "type": "uint256"
        }
      ],
      "payable": false,
      "stateMutability": "view",
      "type": "function"
    },
    {
      "constant": true,
      "inputs": [
        {
          "name": "",
          "type": "uint256"
        }
      ],
      "name": "votes",
      "outputs": [
        {
          "name": "voteString",
          "type": "bytes32"
        },
        {
          "name": "unblinded",
          "type": "uint256"
        },
        {
          "name": "signer",
          "type": "address"
        },
        {
          "name": "counted",
          "type": "bool"
        }
      ],
      "payable": false,
      "stateMutability": "view",
      "type": "function"
    },
    {
      "constant": true,
      "inputs": [],
      "name": "endPreparationTime",
      "outputs": [
        {
          "name": "",
          "type": "uint256"
        }
      ],
      "payable": false,
      "stateMutability": "view",
      "type": "function"
    },
    {
      "constant": true,
      "inputs": [
        {
          "name": "",
          "type": "uint256"
        }
      ],
      "name": "organizerAddresses",
      "outputs": [
        {
          "name": "",
          "type": "address"
        }
      ],
      "payable": false,
      "stateMutability": "view",
      "type": "function"
    },
    {
      "constant": true,
      "inputs": [],
      "name": "state",
      "outputs": [
        {
          "name": "",
          "type": "uint8"
        }
      ],
      "payable": false,
      "stateMutability": "view",
      "type": "function"
    },
    {
      "constant": true,
      "inputs": [
        {
          "name": "",
          "type": "uint256"
        }
      ],
      "name": "voterAddresses",
      "outputs": [
        {
          "name": "",
          "type": "address"
        }
      ],
      "payable": false,
      "stateMutability": "view",
      "type": "function"
    },
    {
      "inputs": [
        {
          "name": "name",
          "type": "string"
        },
        {
          "name": "N",
          "type": "uint256"
        },
        {
          "name": "E",
          "type": "uint256"
        },
        {
          "name": "endPreparationTimestamp",
          "type": "uint256"
        },
        {
          "name": "endRegistrationTimestamp",
          "type": "uint256"
        },
        {
          "name": "endVotingTimestamp",
          "type": "uint256"
        }
      ],
      "payable": false,
      "stateMutability": "nonpayable",
      "type": "constructor"
    },
    {
      "constant": false,
      "inputs": [
        {
          "name": "name",
          "type": "string"
        }
      ],
      "name": "addCandidate",
      "outputs": [],
      "payable": false,
      "stateMutability": "nonpayable",
      "type": "function"
    },
    {
      "constant": false,
      "inputs": [
        {
          "name": "organizerAddress",
          "type": "address"
        },
        {
          "name": "name",
          "type": "string"
        },
        {
          "name": "N",
          "type": "uint256"
        },
        {
          "name": "E",
          "type": "uint256"
        }
      ],
      "name": "addOrganizer",
      "outputs": [],
      "payable": false,
      "stateMutability": "nonpayable",
      "type": "function"
    },
    {
      "constant": false,
      "inputs": [
        {
          "name": "voterAddress",
          "type": "address"
        },
        {
          "name": "name",
          "type": "string"
        }
      ],
      "name": "addVoter",
      "outputs": [],
      "payable": false,
      "stateMutability": "nonpayable",
      "type": "function"
    },
    {
      "constant": false,
      "inputs": [
        {
          "name": "signer",
          "type": "address"
        },
        {
          "name": "blinded",
          "type": "uint256"
        }
      ],
      "name": "requestBlindSig",
      "outputs": [],
      "payable": false,
      "stateMutability": "nonpayable",
      "type": "function"
    },
    {
      "constant": false,
      "inputs": [
        {
          "name": "requester",
          "type": "address"
        },
        {
          "name": "blinded",
          "type": "uint256"
        },
        {
          "name": "signed",
          "type": "uint256"
        }
      ],
      "name": "signBlindSigRequest",
      "outputs": [],
      "payable": false,
      "stateMutability": "nonpayable",
      "type": "function"
    },
    {
      "constant": false,
      "inputs": [
        {
          "name": "voteString",
          "type": "bytes32"
        },
        {
          "name": "unblinded",
          "type": "uint256"
        },
        {
          "name": "signer",
          "type": "address"
        }
      ],
      "name": "vote",
      "outputs": [],
      "payable": false,
      "stateMutability": "nonpayable",
      "type": "function"
    },
    {
      "constant": false,
      "inputs": [
        {
          "name": "votesToTally",
          "type": "uint256"
        }
      ],
      "name": "tally",
      "outputs": [],
      "payable": false,
      "stateMutability": "nonpayable",
      "type": "function"
    },
    {
      "constant": false,
      "inputs": [],
      "name": "endPreparation",
      "outputs": [],
      "payable": false,
      "stateMutability": "nonpayable",
      "type": "function"
    },
    {
      "constant": false,
      "inputs": [],
      "name": "endRegistration",
      "outputs": [],
      "payable": false,
      "stateMutability": "nonpayable",
      "type": "function"
    },
    {
      "constant": false,
      "inputs": [],
      "name": "endVoting",
      "outputs": [],
      "payable": false,
      "stateMutability": "nonpayable",
      "type": "function"
    },
    {
      "constant": false,
      "inputs": [
        {
          "name": "unblinded",
          "type": "uint256"
        },
        {
          "name": "N",
          "type": "uint256"
        },
        {
          "name": "E",
          "type": "uint256"
        },
        {
          "name": "message",
          "type": "bytes32"
        }
      ],
      "name": "verifyBlindSig",
      "outputs": [
        {
          "name": "result",
          "type": "bool"
        }
      ],
      "payable": false,
      "stateMutability": "nonpayable",
      "type": "function"
    }
  ],
  "bytecode": "0x60806040523480156200001157600080fd5b5060405162002d1738038062002d17833981018060405260c08110156200003757600080fd5b8101908080516401000000008111156200005057600080fd5b828101905060208101848111156200006757600080fd5b81518560018202830111640100000000821117156200008557600080fd5b5050929190602001805190602001909291908051906020019092919080519060200190929190805190602001909291908051906020019092919050505060008060006101000a81548160ff02191690836004811115620000e157fe5b02179055506040518060600160405280878152602001604051806040016040528088815260200187815250815260200160011515815250600660003373ffffffffffffffffffffffffffffffffffffffff1673ffffffffffffffffffffffffffffffffffffffff1681526020019081526020016000206000820151816000019080519060200190620001759291906200023f565b506020820151816001016000820151816000015560208201518160010155505060408201518160030160006101000a81548160ff02191690831515021790555090505060073390806001815401808255809150509060018203906000526020600020016000909192909190916101000a81548173ffffffffffffffffffffffffffffffffffffffff021916908373ffffffffffffffffffffffffffffffffffffffff16021790555050826001819055508160028190555080600381905550505050505050620002ee565b828054600181600116156101000203166002900490600052602060002090601f016020900481019282601f106200028257805160ff1916838001178555620002b3565b82800160010185558215620002b3579182015b82811115620002b257825182559160200191906001019062000295565b5b509050620002c29190620002c6565b5090565b620002eb91905b80821115620002e7576000816000905550600101620002cd565b5090565b90565b612a1980620002fe6000396000f3fe608060405234801561001057600080fd5b506004361061012c5760003560e01c80636b0323a2116100ad578063d103643f11610071578063d103643f14610581578063d9e95a981461058b578063dd0e237314610666578063ece79b53146106d4578063ed8b6b31146107c35761012c565b80636b0323a21461042157806376124dac14610485578063905434ec146104dd578063c19d93fb1461054b578063c3403ddf146105775761012c565b8063462e91ec116100f4578063462e91ec146102995780634a8a62ab1461035457806353f9c6f11461035e5780635df813301461037c578063683c4b54146104035761012c565b806303016130146101315780631961847b146101b75780631ea18a4e146101d5578063213666a71461022d578063323688091461024b575b600080fd5b61015d6004803603602081101561014757600080fd5b81019080803590602001909291905050506107f1565b60405180827effffffffffffffffffffffffffffffffffffffffffffffffffffffffffffff19167effffffffffffffffffffffffffffffffffffffffffffffffffffffffffffff1916815260200191505060405180910390f35b6101bf610822565b6040518082815260200191505060405180910390f35b61022b600480360360608110156101eb57600080fd5b81019080803573ffffffffffffffffffffffffffffffffffffffff1690602001909291908035906020019092919080359060200190929190505050610828565b005b610235610c29565b6040518082815260200191505060405180910390f35b6102976004803603604081101561026157600080fd5b81019080803573ffffffffffffffffffffffffffffffffffffffff16906020019092919080359060200190929190505050610c2f565b005b610352600480360360208110156102af57600080fd5b81019080803590602001906401000000008111156102cc57600080fd5b8201836020820111156102de57600080fd5b8035906020019184600183028401116401000000008311171561030057600080fd5b91908080601f016020809104026020016040519081016040528093929190818152602001838380828437600081840152601f19601f82011690508083019250505050505050919291929050505061102b565b005b61035c611270565b005b61036661144c565b6040518082815260200191505060405180910390f35b6103a86004803603602081101561039257600080fd5b8101908080359060200190929190505050611452565b604051808581526020018481526020018373ffffffffffffffffffffffffffffffffffffffff1673ffffffffffffffffffffffffffffffffffffffff1681526020018215151515815260200194505050505060405180910390f35b61040b6114bc565b6040518082815260200191505060405180910390f35b61046b6004803603608081101561043757600080fd5b81019080803590602001909291908035906020019092919080359060200190929190803590602001909291905050506114c2565b604051808215151515815260200191505060405180910390f35b6104db6004803603606081101561049b57600080fd5b810190808035906020019092919080359060200190929190803573ffffffffffffffffffffffffffffffffffffffff16906020019092919050505061150f565b005b610509600480360360208110156104f357600080fd5b8101908080359060200190929190505050611833565b604051808273ffffffffffffffffffffffffffffffffffffffff1673ffffffffffffffffffffffffffffffffffffffff16815260200191505060405180910390f35b61055361186f565b6040518082600481111561056357fe5b60ff16815260200191505060405180910390f35b61057f611881565b005b610589611a7a565b005b610664600480360360408110156105a157600080fd5b81019080803573ffffffffffffffffffffffffffffffffffffffff169060200190929190803590602001906401000000008111156105de57600080fd5b8201836020820111156105f057600080fd5b8035906020019184600183028401116401000000008311171561061257600080fd5b91908080601f016020809104026020016040519081016040528093929190818152602001838380828437600081840152601f19601f820116905080830192505050505050509192919290505050611c56565b005b6106926004803603602081101561067c57600080fd5b8101908080359060200190929190505050611ffc565b604051808273ffffffffffffffffffffffffffffffffffffffff1673ffffffffffffffffffffffffffffffffffffffff16815260200191505060405180910390f35b6107c1600480360360808110156106ea57600080fd5b81019080803573ffffffffffffffffffffffffffffffffffffffff1690602001909291908035906020019064010000000081111561072757600080fd5b82018360208201111561073957600080fd5b8035906020019184600183028401116401000000008311171561075b57600080fd5b91908080601f016020809104026020016040519081016040528093929190818152602001838380828437600081840152601f19601f8201169050808301925050505050505091929192908035906020019092919080359060200190929190505050612038565b005b6107ef600480360360208110156107d957600080fd5b8101908080359060200190929190505050612393565b005b600581815481106107fe57fe5b9060005260206000209060209182820401919006915054906101000a900460f81b81565b60035481565b600660003373ffffffffffffffffffffffffffffffffffffffff1673ffffffffffffffffffffffffffffffffffffffff16815260200190815260200160002060030160009054906101000a900460ff166108ea576040517f08c379a00000000000000000000000000000000000000000000000000000000081526004018080602001828103825260108152602001807f4e6f7420616e206f7267616e697a65720000000000000000000000000000000081525060200191505060405180910390fd5b600260048111156108f757fe5b6000809054906101000a900460ff16600481111561091157fe5b14610984576040517f08c379a00000000000000000000000000000000000000000000000000000000081526004018080602001828103825260138152602001807f5374617465206973206e6f7420766f74696e670000000000000000000000000081525060200191505060405180910390fd5b600073ffffffffffffffffffffffffffffffffffffffff16600a600084815260200190815260200160002060000160009054906101000a900473ffffffffffffffffffffffffffffffffffffffff1673ffffffffffffffffffffffffffffffffffffffff161415610a5d576040517f08c379a00000000000000000000000000000000000000000000000000000000081526004018080602001828103825260148152602001807f426c696e6420646f6573206e6f7420657869737400000000000000000000000081525060200191505060405180910390fd5b3373ffffffffffffffffffffffffffffffffffffffff16600a600084815260200190815260200160002060010160009054906101000a900473ffffffffffffffffffffffffffffffffffffffff1673ffffffffffffffffffffffffffffffffffffffff1614610b17576040517f08c379a00000000000000000000000000000000000000000000000000000000081526004018080602001828103825260268152602001806129346026913960400191505060405180910390fd5b600a600083815260200190815260200160002060010160149054906101000a900460ff1615610bae576040517f08c379a00000000000000000000000000000000000000000000000000000000081526004018080602001828103825260198152602001807f5265717565737420697320616c7265616479207369676e65640000000000000081525060200191505060405180910390fd5b6001600a600084815260200190815260200160002060010160146101000a81548160ff02191690831515021790555080600860008573ffffffffffffffffffffffffffffffffffffffff1673ffffffffffffffffffffffffffffffffffffffff16815260200190815260200160002060020181905550505050565b600e5481565b600073ffffffffffffffffffffffffffffffffffffffff16600860003373ffffffffffffffffffffffffffffffffffffffff1673ffffffffffffffffffffffffffffffffffffffff16815260200190815260200160002060030160009054906101000a900473ffffffffffffffffffffffffffffffffffffffff1673ffffffffffffffffffffffffffffffffffffffff161415610d34576040517f08c379a000000000000000000000000000000000000000000000000000000000815260040180806020018281038252600b8152602001807f4e6f74206120766f74657200000000000000000000000000000000000000000081525060200191505060405180910390fd5b60026004811115610d4157fe5b6000809054906101000a900460ff166004811115610d5b57fe5b14610dce576040517f08c379a00000000000000000000000000000000000000000000000000000000081526004018080602001828103825260138152602001807f5374617465206973206e6f7420766f74696e670000000000000000000000000081525060200191505060405180910390fd5b600073ffffffffffffffffffffffffffffffffffffffff16600a600083815260200190815260200160002060000160009054906101000a900473ffffffffffffffffffffffffffffffffffffffff1673ffffffffffffffffffffffffffffffffffffffff1614610ea6576040517f08c379a000000000000000000000000000000000000000000000000000000000815260040180806020018281038252600c8152602001807f426c696e6420657869737473000000000000000000000000000000000000000081525060200191505060405180910390fd5b60405180606001604052803373ffffffffffffffffffffffffffffffffffffffff1681526020018373ffffffffffffffffffffffffffffffffffffffff16815260200160001515815250600a600083815260200190815260200160002060008201518160000160006101000a81548173ffffffffffffffffffffffffffffffffffffffff021916908373ffffffffffffffffffffffffffffffffffffffff16021790555060208201518160010160006101000a81548173ffffffffffffffffffffffffffffffffffffffff021916908373ffffffffffffffffffffffffffffffffffffffff16021790555060408201518160010160146101000a81548160ff021916908315150217905550905050600b81908060018154018082558091505090600182039060005260206000200160009091929091909150555080600860003373ffffffffffffffffffffffffffffffffffffffff1673ffffffffffffffffffffffffffffffffffffffff168152602001908152602001600020600101819055505050565b600660003373ffffffffffffffffffffffffffffffffffffffff1673ffffffffffffffffffffffffffffffffffffffff16815260200190815260200160002060030160009054906101000a900460ff166110ed576040517f08c379a00000000000000000000000000000000000000000000000000000000081526004018080602001828103825260108152602001807f4e6f7420616e206f7267616e697a65720000000000000000000000000000000081525060200191505060405180910390fd5b600060048111156110fa57fe5b6000809054906101000a900460ff16600481111561111457fe5b14611187576040517f08c379a00000000000000000000000000000000000000000000000000000000081526004018080602001828103825260188152602001807f5374617465206973206e6f74207072657061726174696f6e000000000000000081525060200191505060405180910390fd5b604051806060016040528082815260200160008152602001600115158152506004600060058054905060ff1660ff16815260200190815260200160002060008201518160000190805190602001906111e092919061288e565b506020820151816001015560408201518160020160006101000a81548160ff0219169083151502179055509050506005808054905060001b601f6020811061122457fe5b1a60f81b908060018154018082558091505090600182039060005260206000209060209182820401919006909192909190916101000a81548160ff021916908360f81c02179055505050565b600660003373ffffffffffffffffffffffffffffffffffffffff1673ffffffffffffffffffffffffffffffffffffffff16815260200190815260200160002060030160009054906101000a900460ff16611332576040517f08c379a00000000000000000000000000000000000000000000000000000000081526004018080602001828103825260108152602001807f4e6f7420616e206f7267616e697a65720000000000000000000000000000000081525060200191505060405180910390fd5b6001600481111561133f57fe5b6000809054906101000a900460ff16600481111561135957fe5b146113cc576040517f08c379a00000000000000000000000000000000000000000000000000000000081526004018080602001828103825260198152602001807f5374617465206973206e6f7420726567697374726174696f6e0000000000000081525060200191505060405180910390fd5b600254421015611427576040517f08c379a00000000000000000000000000000000000000000000000000000000081526004018080602001828103825260238152602001806129cb6023913960400191505060405180910390fd5b60026000806101000a81548160ff0219169083600481111561144557fe5b0217905550565b60025481565b600c818154811061145f57fe5b90600052602060002090600302016000915090508060000154908060010154908060020160009054906101000a900473ffffffffffffffffffffffffffffffffffffffff16908060020160149054906101000a900460ff16905084565b60015481565b6000806114d086858761264b565b60001b90506000836040516020018082815260200191505060405160208183030381529060405280519060200120905081811492505050949350505050565b6002600481111561151c57fe5b6000809054906101000a900460ff16600481111561153657fe5b146115a9576040517f08c379a00000000000000000000000000000000000000000000000000000000081526004018080602001828103825260138152602001807f5374617465206973206e6f7420766f74696e670000000000000000000000000081525060200191505060405180910390fd5b600860003373ffffffffffffffffffffffffffffffffffffffff1673ffffffffffffffffffffffffffffffffffffffff16815260200190815260200160002060030160149054906101000a900460ff161561164f576040517f08c379a000000000000000000000000000000000000000000000000000000000815260040180806020018281038252602281526020018061297c6022913960400191505060405180910390fd5b600d600084815260200190815260200160002060009054906101000a900460ff16156116e3576040517f08c379a00000000000000000000000000000000000000000000000000000000081526004018080602001828103825260128152602001807f566f746520737472696e6720657869737473000000000000000000000000000081525060200191505060405180910390fd5b600083604051602001808281526020019150506040516020818303038152906040528051906020012090506000600660008473ffffffffffffffffffffffffffffffffffffffff1673ffffffffffffffffffffffffffffffffffffffff1681526020019081526020016000206001016000015490506000600660008573ffffffffffffffffffffffffffffffffffffffff1673ffffffffffffffffffffffffffffffffffffffff1681526020019081526020016000206001016001015490506117ae858383866114c2565b611820576040517f08c379a000000000000000000000000000000000000000000000000000000000815260040180806020018281038252601c8152602001807f426c696e64207369676e617475726520697320696e636f72726563740000000081525060200191505060405180910390fd5b61182b8686866126a4565b505050505050565b6007818154811061184057fe5b906000526020600020016000915054906101000a900473ffffffffffffffffffffffffffffffffffffffff1681565b6000809054906101000a900460ff1681565b600660003373ffffffffffffffffffffffffffffffffffffffff1673ffffffffffffffffffffffffffffffffffffffff16815260200190815260200160002060030160009054906101000a900460ff16611943576040517f08c379a00000000000000000000000000000000000000000000000000000000081526004018080602001828103825260108152602001807f4e6f7420616e206f7267616e697a65720000000000000000000000000000000081525060200191505060405180910390fd5b6002600481111561195057fe5b6000809054906101000a900460ff16600481111561196a57fe5b146119dd576040517f08c379a00000000000000000000000000000000000000000000000000000000081526004018080602001828103825260138152602001807f5374617465206973206e6f7420766f74696e670000000000000000000000000081525060200191505060405180910390fd5b600354421015611a55576040517f08c379a000000000000000000000000000000000000000000000000000000000815260040180806020018281038252601d8152602001807f566f74696e672074696d6520686173206e6f7420656e6465642079657400000081525060200191505060405180910390fd5b60036000806101000a81548160ff02191690836004811115611a7357fe5b0217905550565b600660003373ffffffffffffffffffffffffffffffffffffffff1673ffffffffffffffffffffffffffffffffffffffff16815260200190815260200160002060030160009054906101000a900460ff16611b3c576040517f08c379a00000000000000000000000000000000000000000000000000000000081526004018080602001828103825260108152602001807f4e6f7420616e206f7267616e697a65720000000000000000000000000000000081525060200191505060405180910390fd5b60006004811115611b4957fe5b6000809054906101000a900460ff166004811115611b6357fe5b14611bd6576040517f08c379a00000000000000000000000000000000000000000000000000000000081526004018080602001828103825260188152602001807f5374617465206973206e6f74207072657061726174696f6e000000000000000081525060200191505060405180910390fd5b600154421015611c31576040517f08c379a000000000000000000000000000000000000000000000000000000000815260040180806020018281038252602281526020018061295a6022913960400191505060405180910390fd5b60016000806101000a81548160ff02191690836004811115611c4f57fe5b0217905550565b600660003373ffffffffffffffffffffffffffffffffffffffff1673ffffffffffffffffffffffffffffffffffffffff16815260200190815260200160002060030160009054906101000a900460ff16611d18576040517f08c379a00000000000000000000000000000000000000000000000000000000081526004018080602001828103825260108152602001807f4e6f7420616e206f7267616e697a65720000000000000000000000000000000081525060200191505060405180910390fd5b60016004811115611d2557fe5b6000809054906101000a900460ff166004811115611d3f57fe5b14611db2576040517f08c379a00000000000000000000000000000000000000000000000000000000081526004018080602001828103825260198152602001807f5374617465206973206e6f7420726567697374726174696f6e0000000000000081525060200191505060405180910390fd5b600860008373ffffffffffffffffffffffffffffffffffffffff1673ffffffffffffffffffffffffffffffffffffffff16815260200190815260200160002060030160149054906101000a900460ff1615611e75576040517f08c379a000000000000000000000000000000000000000000000000000000000815260040180806020018281038252601b8152602001807f566f74657220697320616c72656164792072656769737465726564000000000081525060200191505060405180910390fd5b6040518060a001604052808281526020016000815260200160008152602001600073ffffffffffffffffffffffffffffffffffffffff16815260200160011515815250600860008473ffffffffffffffffffffffffffffffffffffffff1673ffffffffffffffffffffffffffffffffffffffff1681526020019081526020016000206000820151816000019080519060200190611f1392919061288e565b50602082015181600101556040820151816002015560608201518160030160006101000a81548173ffffffffffffffffffffffffffffffffffffffff021916908373ffffffffffffffffffffffffffffffffffffffff16021790555060808201518160030160146101000a81548160ff02191690831515021790555090505060098290806001815401808255809150509060018203906000526020600020016000909192909190916101000a81548173ffffffffffffffffffffffffffffffffffffffff021916908373ffffffffffffffffffffffffffffffffffffffff160217905550505050565b6009818154811061200957fe5b906000526020600020016000915054906101000a900473ffffffffffffffffffffffffffffffffffffffff1681565b600660003373ffffffffffffffffffffffffffffffffffffffff1673ffffffffffffffffffffffffffffffffffffffff16815260200190815260200160002060030160009054906101000a900460ff166120fa576040517f08c379a00000000000000000000000000000000000000000000000000000000081526004018080602001828103825260108152602001807f4e6f7420616e206f7267616e697a65720000000000000000000000000000000081525060200191505060405180910390fd5b6000600481111561210757fe5b6000809054906101000a900460ff16600481111561212157fe5b14612194576040517f08c379a00000000000000000000000000000000000000000000000000000000081526004018080602001828103825260188152602001807f5374617465206973206e6f74207072657061726174696f6e000000000000000081525060200191505060405180910390fd5b600660008573ffffffffffffffffffffffffffffffffffffffff1673ffffffffffffffffffffffffffffffffffffffff16815260200190815260200160002060030160009054906101000a900460ff1615612257576040517f08c379a00000000000000000000000000000000000000000000000000000000081526004018080602001828103825260188152602001807f4f7267616e697a657220616c726561647920657869737473000000000000000081525060200191505060405180910390fd5b6040518060600160405280848152602001604051806040016040528085815260200184815250815260200160011515815250600660008673ffffffffffffffffffffffffffffffffffffffff1673ffffffffffffffffffffffffffffffffffffffff16815260200190815260200160002060008201518160000190805190602001906122e492919061288e565b506020820151816001016000820151816000015560208201518160010155505060408201518160030160006101000a81548160ff02191690831515021790555090505060078490806001815401808255809150509060018203906000526020600020016000909192909190916101000a81548173ffffffffffffffffffffffffffffffffffffffff021916908373ffffffffffffffffffffffffffffffffffffffff1602179055505050505050565b600660003373ffffffffffffffffffffffffffffffffffffffff1673ffffffffffffffffffffffffffffffffffffffff16815260200190815260200160002060030160009054906101000a900460ff16612455576040517f08c379a00000000000000000000000000000000000000000000000000000000081526004018080602001828103825260108152602001807f4e6f7420616e206f7267616e697a65720000000000000000000000000000000081525060200191505060405180910390fd5b6003600481111561246257fe5b6000809054906101000a900460ff16600481111561247c57fe5b146124ef576040517f08c379a00000000000000000000000000000000000000000000000000000000081526004018080602001828103825260158152602001807f5374617465206973206e6f742074616c6c79696e67000000000000000000000081525060200191505060405180910390fd5b600c80549050600182600e5401031115612554576040517f08c379a000000000000000000000000000000000000000000000000000000000815260040180806020018281038252602d81526020018061299e602d913960400191505060405180910390fd5b6000600e5490506000600183600e540103905060008290505b81811161262d576000600c828154811061258357fe5b9060005260206000209060030201600001546000602081106125a157fe5b1a60f81b60f81c9050600460008260ff1660ff168152602001908152602001600020600101600081548092919060010191905055506001600c83815481106125e557fe5b906000526020600020906003020160020160146101000a81548160ff021916908315150217905550600e6000815480929190600101919050555050808060010191505061256d565b50600c80549050600e54141561264657612645612869565b5b505050565b600060405160208152602080820152602060408201528460608201528360808201528260a082015260208160c083600060056107d05a03f1806000811461269157612696565b600080fd5b508151925050509392505050565b60046000846000602081106126b557fe5b1a60f81b60f81c60ff1660ff16815260200190815260200160002060020160009054906101000a900460ff16612753576040517f08c379a00000000000000000000000000000000000000000000000000000000081526004018080602001828103825260148152602001807f496e76616c69642063616e64696461746520696400000000000000000000000081525060200191505060405180910390fd5b600c60405180608001604052808581526020018481526020018373ffffffffffffffffffffffffffffffffffffffff1681526020016000151581525090806001815401808255809150509060018203906000526020600020906003020160009091929091909150600082015181600001556020820151816001015560408201518160020160006101000a81548173ffffffffffffffffffffffffffffffffffffffff021916908373ffffffffffffffffffffffffffffffffffffffff16021790555060608201518160020160146101000a81548160ff0219169083151502179055505050506001600d600085815260200190815260200160002060006101000a81548160ff021916908315150217905550505050565b60046000806101000a81548160ff0219169083600481111561288757fe5b0217905550565b828054600181600116156101000203166002900490600052602060002090601f016020900481019282601f106128cf57805160ff19168380011785556128fd565b828001600101855582156128fd579182015b828111156128fc5782518255916020019190600101906128e1565b5b50905061290a919061290e565b5090565b61293091905b8082111561292c576000816000905550600101612914565b5090565b9056fe4f7267616e697a6572206973206e6f74207468652064657369676e61746564207369676e65725072657061726174696f6e2074696d6520686173206e6f7420656e64656420796574566f74652073656e646572206973207265676973746572656420617320766f746572417474656d7074696e6720746f2074616c6c79206d6f7265207468616e20756e636f756e74656420766f746573526567697374726174696f6e2074696d6520686173206e6f7420656e64656420796574a165627a7a7230582081bc83acd3b75f5459111999dae019cdc6cc4dc26ec972d274f68533d04fdd110029",
  "source": "pragma solidity ^0.5.8;\r\n\r\ncontract VotingContract {\r\n    // Variables\r\n    enum State {\r\n        Preparation,\r\n        Registration,\r\n        Voting,\r\n        Tallying,\r\n        Finished\r\n    }\r\n    State public state;\r\n    uint256 public endPreparationTime;\r\n    uint256 public endRegistrationTime;\r\n    uint256 public endVotingTime;\r\n\r\n    struct Candidate {\r\n        string name;\r\n        uint256 voteCount;\r\n        bool exists;\r\n    }\r\n    mapping(uint8 => Candidate) candidates; // uint8 candidateId (bytes1) to Candidate\r\n    bytes1[] public candidateIds;\r\n\r\n    struct BlindSigKey {\r\n        uint256 N;\r\n        uint256 E;\r\n    }\r\n\r\n    struct Organizer {\r\n        string name;\r\n        BlindSigKey blindSigKey;\r\n        bool exists;\r\n    }\r\n    mapping(address => Organizer) organizers;\r\n    address[] public organizerAddresses;\r\n\r\n    struct Voter {\r\n        string name;\r\n        uint256 blinded;\r\n        uint256 signed;\r\n        address signer;\r\n        bool exists;\r\n    }\r\n    mapping(address => Voter) voters;\r\n    address[] public voterAddresses;\r\n\r\n    struct BlindSigRequest {\r\n        address requester;\r\n        address signer;\r\n        bool signed;\r\n    }\r\n    mapping(uint256 => BlindSigRequest) blindSigRequests;\r\n    uint256[] blinds;\r\n\r\n    struct Vote {\r\n        bytes32 voteString;\r\n        uint256 unblinded;\r\n        address signer;\r\n        bool counted;\r\n    }\r\n    Vote[] public votes;\r\n    mapping(bytes32 => bool) voteExists; // bytes32 voteString to bool\r\n    uint256 public countedVotes;\r\n\r\n    // Events\r\n\r\n    // Functions\r\n    constructor(\r\n        string memory name,\r\n        uint256 N,\r\n        uint256 E,\r\n        uint256 endPreparationTimestamp,\r\n        uint256 endRegistrationTimestamp,\r\n        uint256 endVotingTimestamp\r\n    )\r\n        public\r\n    {\r\n        state = State.Preparation;\r\n        organizers[msg.sender] = Organizer(\r\n            name,\r\n            BlindSigKey(N, E),\r\n            true\r\n        );\r\n        organizerAddresses.push(msg.sender);\r\n        endPreparationTime = endPreparationTimestamp;\r\n        endRegistrationTime = endRegistrationTimestamp;\r\n        endVotingTime = endVotingTimestamp;\r\n    }\r\n\r\n    modifier onlyOrganizer {\r\n        require(organizers[msg.sender].exists, \"Not an organizer\");\r\n        _;\r\n    }\r\n\r\n    modifier onlyVoter {\r\n        require(voters[msg.sender].signer != address(0), \"Not a voter\");\r\n        _;\r\n    }\r\n    // fallback function (if exists)\r\n    // external\r\n    // public\r\n    function addCandidate(\r\n        string memory name\r\n    )\r\n        public\r\n        onlyOrganizer\r\n    {\r\n        require(state == State.Preparation, \"State is not preparation\");\r\n        candidates[uint8(candidateIds.length)] = Candidate(\r\n            name,\r\n            0,\r\n            true\r\n        );\r\n        candidateIds.push(bytes32(candidateIds.length)[31]);\r\n    }\r\n\r\n    function addOrganizer(\r\n        address organizerAddress,\r\n        string memory name,\r\n        uint256 N,\r\n        uint256 E\r\n    )\r\n        public\r\n        onlyOrganizer\r\n    {\r\n        require(state == State.Preparation, \"State is not preparation\");\r\n        require(!organizers[organizerAddress].exists, \"Organizer already exists\");\r\n        organizers[organizerAddress] = Organizer(\r\n            name,\r\n            BlindSigKey(N, E),\r\n            true\r\n        );\r\n        organizerAddresses.push(organizerAddress);\r\n    }\r\n\r\n    function addVoter(\r\n        address voterAddress,\r\n        string memory name\r\n    )\r\n        public\r\n        onlyOrganizer\r\n    {\r\n        require(state == State.Registration, \"State is not registration\");\r\n        require(!voters[voterAddress].exists, \"Voter is already registered\");\r\n        voters[voterAddress] = Voter(\r\n            name,\r\n            uint256(0),\r\n            uint256(0),\r\n            address(0),\r\n            true\r\n        );\r\n        voterAddresses.push(voterAddress);\r\n    }\r\n\r\n    function requestBlindSig(\r\n        address signer,\r\n        uint256 blinded\r\n    )\r\n        public\r\n        onlyVoter\r\n    {\r\n        require(state == State.Voting, \"State is not voting\");\r\n        require(blindSigRequests[blinded].requester == address(0), \"Blind exists\");\r\n        blindSigRequests[blinded] = BlindSigRequest(\r\n            msg.sender,\r\n            signer,\r\n            false\r\n        );\r\n        blinds.push(blinded);\r\n        voters[msg.sender].blinded = blinded;\r\n    }\r\n\r\n    function signBlindSigRequest(\r\n        address requester,\r\n        uint256 blinded,\r\n        uint256 signed\r\n    )\r\n        public\r\n        onlyOrganizer\r\n    {\r\n        require(state == State.Voting, \"State is not voting\");\r\n        require(blindSigRequests[blinded].requester != address(0), \"Blind does not exist\");\r\n        require(blindSigRequests[blinded].signer == msg.sender, \"Organizer is not the designated signer\");\r\n        require(!blindSigRequests[blinded].signed, \"Request is already signed\");\r\n        blindSigRequests[blinded].signed = true;\r\n        voters[requester].signed = signed;\r\n    }\r\n\r\n    function vote(\r\n        bytes32 voteString,\r\n        uint256 unblinded,\r\n        address signer\r\n    )\r\n        public\r\n    {\r\n        require(state == State.Voting, \"State is not voting\");\r\n        // Make sure voter is not using its registered account\r\n        require(!voters[msg.sender].exists, \"Vote sender is registered as voter\");\r\n        // Check if voteString has been used\r\n        require(!voteExists[voteString], \"Vote string exists\");\r\n\r\n        // Verify voteString with unblinded if its signed by signer\r\n        bytes32 message = keccak256(abi.encode(voteString));\r\n        uint256 N = organizers[signer].blindSigKey.N;\r\n        uint256 E = organizers[signer].blindSigKey.E;\r\n        require(verifyBlindSig(unblinded, N, E, message), \"Blind signature is incorrect\");\r\n\r\n        // Store the votes\r\n        addVote(voteString, unblinded, signer);\r\n    }\r\n\r\n    function tally(uint256 votesToTally) public onlyOrganizer {\r\n        require(state == State.Tallying, \"State is not tallying\");\r\n        require(countedVotes + votesToTally - 1 <= votes.length, \"Attempting to tally more than uncounted votes\");\r\n\r\n        uint256 startIndex = countedVotes;\r\n        uint256 endIndex = countedVotes + votesToTally - 1;\r\n        for (uint256 i = startIndex; i <= endIndex; i++) {\r\n            // get votes[i]\r\n            uint8 candidateId = uint8(votes[i].voteString[0]);\r\n            // check candidateId from votes[i].voteString\r\n            candidates[candidateId].voteCount++;\r\n            // Mark vote as counted\r\n            votes[i].counted = true;\r\n            // candidate[candidateId].voteCount++\r\n            countedVotes++;\r\n        }\r\n\r\n        if (countedVotes == votes.length) {\r\n            endTally();\r\n        }\r\n    }\r\n\r\n    function endPreparation() public onlyOrganizer {\r\n        require(state == State.Preparation, \"State is not preparation\");\r\n        require(block.timestamp >= endPreparationTime, \"Preparation time has not ended yet\");\r\n        state = State.Registration;\r\n    }\r\n\r\n    function endRegistration() public onlyOrganizer {\r\n        require(state == State.Registration, \"State is not registration\");\r\n        require(block.timestamp >= endRegistrationTime, \"Registration time has not ended yet\");\r\n        state = State.Voting;\r\n    }\r\n\r\n    function endVoting() public onlyOrganizer {\r\n        require(state == State.Voting, \"State is not voting\");\r\n        require(block.timestamp >= endVotingTime, \"Voting time has not ended yet\");\r\n        state = State.Tallying;\r\n    }\r\n    // internal\r\n    // private\r\n    function verifyBlindSig(\r\n        uint256 unblinded,\r\n        uint256 N,\r\n        uint256 E,\r\n        bytes32 message\r\n    )\r\n        public\r\n        returns (bool result)\r\n    {\r\n        bytes32 originalMessage = bytes32(expmod(unblinded, E, N));\r\n        bytes32 hashMessage = keccak256(abi.encode(message));\r\n        result = hashMessage == originalMessage;\r\n    }\r\n\r\n    function endTally() private {\r\n        state = State.Finished;\r\n    }\r\n\r\n    function addVote(\r\n        bytes32 voteString,\r\n        uint256 unblinded,\r\n        address signer\r\n    )\r\n        private\r\n    {\r\n        // Check if candidateId from voteString is correct\r\n        require(candidates[uint8(voteString[0])].exists, \"Invalid candidate id\");\r\n        votes.push(Vote(voteString, unblinded, signer, false));\r\n        voteExists[voteString] = true;\r\n    }\r\n\r\n    // Source : https://medium.com/@rbkhmrcr/precompiles-solidity-e5d29bd428c4\r\n    // Calling expmod precompile\r\n    function expmod(uint256 base, uint256 e, uint256 m) private returns (uint256 o) {\r\n    // are all of these inside the precompile now?\r\n\r\n    assembly {\r\n        // define pointer\r\n        let p := mload(0x40)\r\n        // store data assembly-favouring ways\r\n        mstore(p, 0x20)             // Length of Base\r\n        mstore(add(p, 0x20), 0x20)  // Length of Exponent\r\n        mstore(add(p, 0x40), 0x20)  // Length of Modulus\r\n        mstore(add(p, 0x60), base)  // Base\r\n        mstore(add(p, 0x80), e)     // Exponent\r\n        mstore(add(p, 0xa0), m)     // Modulus\r\n        // call modexp precompile! -- old school gas handling\r\n        let success := call(sub(gas, 2000), 0x05, 0, p, 0xc0, p, 0x20)\r\n        // gas fiddling\r\n        switch success case 0 {\r\n            revert(0, 0)\r\n        }\r\n        // data\r\n        o := mload(p)\r\n        }\r\n    }\r\n}",
  "sourcePath": "E:/Development/Projects/BlockchainVoting/contracts/VotingContract.sol",
  "compiler": {
    "name": "solc",
    "version": "0.5.8+commit.23d335f2.Emscripten.clang"
  },
  "schemaVersion": "3.0.9",
  "updatedAt": "2019-06-03T10:41:40.838Z",
  "devdoc": {
    "methods": {}
  },
  "userdoc": {
    "methods": {}
  }
}