{
  "contractName": "VotingContract",
  "abi": [
    {
      "constant": true,
      "inputs": [
        {
          "name": "",
          "type": "uint256"
        }
      ],
      "name": "candidateIds",
      "outputs": [
        {
          "name": "",
          "type": "bytes1"
        }
      ],
      "payable": false,
      "stateMutability": "view",
      "type": "function"
    },
    {
      "constant": true,
      "inputs": [
        {
          "name": "",
          "type": "address"
        }
      ],
      "name": "organizers",
      "outputs": [
        {
          "name": "name",
          "type": "string"
        },
        {
          "name": "N",
          "type": "uint256"
        },
        {
          "name": "E",
          "type": "uint256"
        },
        {
          "name": "exists",
          "type": "bool"
        }
      ],
      "payable": false,
      "stateMutability": "view",
      "type": "function"
    },
    {
      "constant": true,
      "inputs": [],
      "name": "endVotingTime",
      "outputs": [
        {
          "name": "",
          "type": "uint256"
        }
      ],
      "payable": false,
      "stateMutability": "view",
      "type": "function"
    },
    {
      "constant": true,
      "inputs": [],
      "name": "countedVotes",
      "outputs": [
        {
          "name": "",
          "type": "uint256"
        }
      ],
      "payable": false,
      "stateMutability": "view",
      "type": "function"
    },
    {
      "constant": true,
      "inputs": [],
      "name": "voterCount",
      "outputs": [
        {
          "name": "",
          "type": "uint256"
        }
      ],
      "payable": false,
      "stateMutability": "view",
      "type": "function"
    },
    {
      "constant": true,
      "inputs": [],
      "name": "endRegistrationTime",
      "outputs": [
        {
          "name": "",
          "type": "uint256"
        }
      ],
      "payable": false,
      "stateMutability": "view",
      "type": "function"
    },
    {
      "constant": true,
      "inputs": [
        {
          "name": "",
          "type": "uint256"
        }
      ],
      "name": "votes",
      "outputs": [
        {
          "name": "voteString",
          "type": "bytes32"
        },
        {
          "name": "unblinded",
          "type": "uint256"
        },
        {
          "name": "signer",
          "type": "address"
        },
        {
          "name": "counted",
          "type": "bool"
        }
      ],
      "payable": false,
      "stateMutability": "view",
      "type": "function"
    },
    {
      "constant": true,
      "inputs": [
        {
          "name": "",
          "type": "uint256"
        }
      ],
      "name": "blinds",
      "outputs": [
        {
          "name": "",
          "type": "uint256"
        }
      ],
      "payable": false,
      "stateMutability": "view",
      "type": "function"
    },
    {
      "constant": true,
      "inputs": [],
      "name": "blindCount",
      "outputs": [
        {
          "name": "",
          "type": "uint256"
        }
      ],
      "payable": false,
      "stateMutability": "view",
      "type": "function"
    },
    {
      "constant": true,
      "inputs": [],
      "name": "endPreparationTime",
      "outputs": [
        {
          "name": "",
          "type": "uint256"
        }
      ],
      "payable": false,
      "stateMutability": "view",
      "type": "function"
    },
    {
      "constant": true,
      "inputs": [
        {
          "name": "",
          "type": "uint8"
        }
      ],
      "name": "candidates",
      "outputs": [
        {
          "name": "name",
          "type": "string"
        },
        {
          "name": "voteCount",
          "type": "uint256"
        },
        {
          "name": "exists",
          "type": "bool"
        }
      ],
      "payable": false,
      "stateMutability": "view",
      "type": "function"
    },
    {
      "constant": true,
      "inputs": [
        {
          "name": "",
          "type": "uint256"
        }
      ],
      "name": "blindSigRequests",
      "outputs": [
        {
          "name": "requester",
          "type": "address"
        },
        {
          "name": "signer",
          "type": "address"
        },
        {
          "name": "signed",
          "type": "bool"
        }
      ],
      "payable": false,
      "stateMutability": "view",
      "type": "function"
    },
    {
      "constant": true,
      "inputs": [],
      "name": "organizerCount",
      "outputs": [
        {
          "name": "",
          "type": "uint256"
        }
      ],
      "payable": false,
      "stateMutability": "view",
      "type": "function"
    },
    {
      "constant": true,
      "inputs": [
        {
          "name": "",
          "type": "uint256"
        }
      ],
      "name": "organizerAddresses",
      "outputs": [
        {
          "name": "",
          "type": "address"
        }
      ],
      "payable": false,
      "stateMutability": "view",
      "type": "function"
    },
    {
      "constant": true,
      "inputs": [
        {
          "name": "",
          "type": "address"
        }
      ],
      "name": "voters",
      "outputs": [
        {
          "name": "name",
          "type": "string"
        },
        {
          "name": "blinded",
          "type": "uint256"
        },
        {
          "name": "signed",
          "type": "uint256"
        },
        {
          "name": "signer",
          "type": "address"
        },
        {
          "name": "exists",
          "type": "bool"
        }
      ],
      "payable": false,
      "stateMutability": "view",
      "type": "function"
    },
    {
      "constant": true,
      "inputs": [],
      "name": "candidateCount",
      "outputs": [
        {
          "name": "",
          "type": "uint8"
        }
      ],
      "payable": false,
      "stateMutability": "view",
      "type": "function"
    },
    {
      "constant": true,
      "inputs": [],
      "name": "state",
      "outputs": [
        {
          "name": "",
          "type": "uint8"
        }
      ],
      "payable": false,
      "stateMutability": "view",
      "type": "function"
    },
    {
      "constant": true,
      "inputs": [],
      "name": "voteCount",
      "outputs": [
        {
          "name": "",
          "type": "uint256"
        }
      ],
      "payable": false,
      "stateMutability": "view",
      "type": "function"
    },
    {
      "constant": true,
      "inputs": [
        {
          "name": "",
          "type": "uint256"
        }
      ],
      "name": "voterAddresses",
      "outputs": [
        {
          "name": "",
          "type": "address"
        }
      ],
      "payable": false,
      "stateMutability": "view",
      "type": "function"
    },
    {
      "constant": true,
      "inputs": [
        {
          "name": "",
          "type": "bytes32"
        }
      ],
      "name": "voteExists",
      "outputs": [
        {
          "name": "",
          "type": "bool"
        }
      ],
      "payable": false,
      "stateMutability": "view",
      "type": "function"
    },
    {
      "inputs": [
        {
          "name": "name",
          "type": "string"
        },
        {
          "name": "N",
          "type": "uint256"
        },
        {
          "name": "E",
          "type": "uint256"
        },
        {
          "name": "endPreparationTimestamp",
          "type": "uint256"
        },
        {
          "name": "endRegistrationTimestamp",
          "type": "uint256"
        },
        {
          "name": "endVotingTimestamp",
          "type": "uint256"
        }
      ],
      "payable": false,
      "stateMutability": "nonpayable",
      "type": "constructor"
    },
    {
      "constant": false,
      "inputs": [
        {
          "name": "name",
          "type": "string"
        }
      ],
      "name": "addCandidate",
      "outputs": [],
      "payable": false,
      "stateMutability": "nonpayable",
      "type": "function"
    },
    {
      "constant": false,
      "inputs": [
        {
          "name": "organizerAddress",
          "type": "address"
        },
        {
          "name": "name",
          "type": "string"
        },
        {
          "name": "N",
          "type": "uint256"
        },
        {
          "name": "E",
          "type": "uint256"
        }
      ],
      "name": "addOrganizer",
      "outputs": [],
      "payable": false,
      "stateMutability": "nonpayable",
      "type": "function"
    },
    {
      "constant": false,
      "inputs": [
        {
          "name": "voterAddress",
          "type": "address"
        },
        {
          "name": "name",
          "type": "string"
        }
      ],
      "name": "addVoter",
      "outputs": [],
      "payable": false,
      "stateMutability": "nonpayable",
      "type": "function"
    },
    {
      "constant": false,
      "inputs": [
        {
          "name": "signer",
          "type": "address"
        },
        {
          "name": "blinded",
          "type": "uint256"
        }
      ],
      "name": "requestBlindSig",
      "outputs": [],
      "payable": false,
      "stateMutability": "nonpayable",
      "type": "function"
    },
    {
      "constant": false,
      "inputs": [
        {
          "name": "requester",
          "type": "address"
        },
        {
          "name": "blinded",
          "type": "uint256"
        },
        {
          "name": "signed",
          "type": "uint256"
        }
      ],
      "name": "signBlindSigRequest",
      "outputs": [],
      "payable": false,
      "stateMutability": "nonpayable",
      "type": "function"
    },
    {
      "constant": false,
      "inputs": [
        {
          "name": "voteString",
          "type": "bytes32"
        },
        {
          "name": "unblinded",
          "type": "uint256"
        },
        {
          "name": "signer",
          "type": "address"
        }
      ],
      "name": "vote",
      "outputs": [],
      "payable": false,
      "stateMutability": "nonpayable",
      "type": "function"
    },
    {
      "constant": false,
      "inputs": [
        {
          "name": "votesToTally",
          "type": "uint256"
        }
      ],
      "name": "tally",
      "outputs": [],
      "payable": false,
      "stateMutability": "nonpayable",
      "type": "function"
    },
    {
      "constant": false,
      "inputs": [],
      "name": "endPreparation",
      "outputs": [],
      "payable": false,
      "stateMutability": "nonpayable",
      "type": "function"
    },
    {
      "constant": false,
      "inputs": [],
      "name": "endRegistration",
      "outputs": [],
      "payable": false,
      "stateMutability": "nonpayable",
      "type": "function"
    },
    {
      "constant": false,
      "inputs": [],
      "name": "endVoting",
      "outputs": [],
      "payable": false,
      "stateMutability": "nonpayable",
      "type": "function"
    },
    {
      "constant": false,
      "inputs": [
        {
          "name": "unblinded",
          "type": "uint256"
        },
        {
          "name": "N",
          "type": "uint256"
        },
        {
          "name": "E",
          "type": "uint256"
        },
        {
          "name": "message",
          "type": "bytes32"
        }
      ],
      "name": "verifyBlindSig",
      "outputs": [
        {
          "name": "result",
          "type": "bool"
        }
      ],
      "payable": false,
      "stateMutability": "nonpayable",
      "type": "function"
    }
  ],
  "bytecode": "0x60806040523480156200001157600080fd5b506040516200361138038062003611833981018060405260c08110156200003757600080fd5b8101908080516401000000008111156200005057600080fd5b828101905060208101848111156200006757600080fd5b81518560018202830111640100000000821117156200008557600080fd5b5050929190602001805190602001909291908051906020019092919080519060200190929190805190602001909291908051906020019092919050505060008060006101000a81548160ff02191690836004811115620000e157fe5b0217905550604051806080016040528087815260200186815260200185815260200160011515815250600760003373ffffffffffffffffffffffffffffffffffffffff1673ffffffffffffffffffffffffffffffffffffffff16815260200190815260200160002060008201518160000190805190602001906200016792919062000238565b50602082015181600101556040820151816002015560608201518160030160006101000a81548160ff02191690831515021790555090505060083390806001815401808255809150509060018203906000526020600020016000909192909190916101000a81548173ffffffffffffffffffffffffffffffffffffffff021916908373ffffffffffffffffffffffffffffffffffffffff16021790555050600960008154809291906001019190505550826001819055508160028190555080600381905550505050505050620002e7565b828054600181600116156101000203166002900490600052602060002090601f016020900481019282601f106200027b57805160ff1916838001178555620002ac565b82800160010185558215620002ac579182015b82811115620002ab5782518255916020019190600101906200028e565b5b509050620002bb9190620002bf565b5090565b620002e491905b80821115620002e0576000816000905550600101620002c6565b5090565b90565b61331a80620002f76000396000f3fe608060405234801561001057600080fd5b50600436106101e55760003560e01c80636d6277f41161010f578063c3403ddf116100a2578063dd0e237311610071578063dd0e237314610b44578063e5a5dc5714610bb2578063ece79b5314610bf8578063ed8b6b3114610ce7576101e5565b8063c3403ddf14610a37578063c638407114610a41578063d103643f14610a5f578063d9e95a9814610a69576101e5565b8063905434ec116100de578063905434ec14610870578063a3ec138d146108de578063a9a981a3146109e7578063c19d93fb14610a0b576101e5565b80636d6277f4146106925780637114801a1461074e57806376124dac146107fa578063834fdefc14610852576101e5565b8063462e91ec1161018757806362dbab3e1161015657806362dbab3e146105b0578063640fad78146105f2578063683c4b54146106105780636b0323a21461062e576101e5565b8063462e91ec146104465780634a8a62ab1461050157806353f9c6f11461050b5780635df8133014610529576101e5565b80631ea18a4e116101c35780631ea18a4e14610364578063213666a7146103bc57806332368809146103da57806342169e4814610428576101e5565b806303016130146101ea5780630544c5b9146102705780631961847b14610346575b600080fd5b6102166004803603602081101561020057600080fd5b8101908080359060200190929190505050610d15565b60405180827effffffffffffffffffffffffffffffffffffffffffffffffffffffffffffff19167effffffffffffffffffffffffffffffffffffffffffffffffffffffffffffff1916815260200191505060405180910390f35b6102b26004803603602081101561028657600080fd5b81019080803573ffffffffffffffffffffffffffffffffffffffff169060200190929190505050610d46565b604051808060200185815260200184815260200183151515158152602001828103825286818151815260200191508051906020019080838360005b838110156103085780820151818401526020810190506102ed565b50505050905090810190601f1680156103355780820380516001836020036101000a031916815260200191505b509550505050505060405180910390f35b61034e610e1b565b6040518082815260200191505060405180910390f35b6103ba6004803603606081101561037a57600080fd5b81019080803573ffffffffffffffffffffffffffffffffffffffff1690602001909291908035906020019092919080359060200190929190505050610e21565b005b6103c4611222565b6040518082815260200191505060405180910390f35b610426600480360360408110156103f057600080fd5b81019080803573ffffffffffffffffffffffffffffffffffffffff16906020019092919080359060200190929190505050611228565b005b610430611636565b6040518082815260200191505060405180910390f35b6104ff6004803603602081101561045c57600080fd5b810190808035906020019064010000000081111561047957600080fd5b82018360208201111561048b57600080fd5b803590602001918460018302840111640100000000831117156104ad57600080fd5b91908080601f016020809104026020016040519081016040528093929190818152602001838380828437600081840152601f19601f82011690508083019250505050505050919291929050505061163c565b005b6105096118b3565b005b610513611a8f565b6040518082815260200191505060405180910390f35b6105556004803603602081101561053f57600080fd5b8101908080359060200190929190505050611a95565b604051808581526020018481526020018373ffffffffffffffffffffffffffffffffffffffff1673ffffffffffffffffffffffffffffffffffffffff1681526020018215151515815260200194505050505060405180910390f35b6105dc600480360360208110156105c657600080fd5b8101908080359060200190929190505050611aff565b6040518082815260200191505060405180910390f35b6105fa611b20565b6040518082815260200191505060405180910390f35b610618611b26565b6040518082815260200191505060405180910390f35b6106786004803603608081101561064457600080fd5b8101908080359060200190929190803590602001909291908035906020019092919080359060200190929190505050611b2c565b604051808215151515815260200191505060405180910390f35b6106c1600480360360208110156106a857600080fd5b81019080803560ff169060200190929190505050611b79565b604051808060200184815260200183151515158152602001828103825285818151815260200191508051906020019080838360005b838110156107115780820151818401526020810190506106f6565b50505050905090810190601f16801561073e5780820380516001836020036101000a031916815260200191505b5094505050505060405180910390f35b61077a6004803603602081101561076457600080fd5b8101908080359060200190929190505050611c48565b604051808473ffffffffffffffffffffffffffffffffffffffff1673ffffffffffffffffffffffffffffffffffffffff1681526020018373ffffffffffffffffffffffffffffffffffffffff1673ffffffffffffffffffffffffffffffffffffffff16815260200182151515158152602001935050505060405180910390f35b6108506004803603606081101561081057600080fd5b810190808035906020019092919080359060200190929190803573ffffffffffffffffffffffffffffffffffffffff169060200190929190505050611cbf565b005b61085a611fdd565b6040518082815260200191505060405180910390f35b61089c6004803603602081101561088657600080fd5b8101908080359060200190929190505050611fe3565b604051808273ffffffffffffffffffffffffffffffffffffffff1673ffffffffffffffffffffffffffffffffffffffff16815260200191505060405180910390f35b610920600480360360208110156108f457600080fd5b81019080803573ffffffffffffffffffffffffffffffffffffffff16906020019092919050505061201f565b60405180806020018681526020018581526020018473ffffffffffffffffffffffffffffffffffffffff1673ffffffffffffffffffffffffffffffffffffffff16815260200183151515158152602001828103825287818151815260200191508051906020019080838360005b838110156109a857808201518184015260208101905061098d565b50505050905090810190601f1680156109d55780820380516001836020036101000a031916815260200191505b50965050505050505060405180910390f35b6109ef61211a565b604051808260ff1660ff16815260200191505060405180910390f35b610a1361212d565b60405180826004811115610a2357fe5b60ff16815260200191505060405180910390f35b610a3f61213f565b005b610a49612338565b6040518082815260200191505060405180910390f35b610a6761233e565b005b610b4260048036036040811015610a7f57600080fd5b81019080803573ffffffffffffffffffffffffffffffffffffffff16906020019092919080359060200190640100000000811115610abc57600080fd5b820183602082011115610ace57600080fd5b80359060200191846001830284011164010000000083111715610af057600080fd5b91908080601f016020809104026020016040519081016040528093929190818152602001838380828437600081840152601f19601f82011690508083019250505050505050919291929050505061251a565b005b610b7060048036036020811015610b5a57600080fd5b81019080803590602001909291905050506128d2565b604051808273ffffffffffffffffffffffffffffffffffffffff1673ffffffffffffffffffffffffffffffffffffffff16815260200191505060405180910390f35b610bde60048036036020811015610bc857600080fd5b810190808035906020019092919050505061290e565b604051808215151515815260200191505060405180910390f35b610ce560048036036080811015610c0e57600080fd5b81019080803573ffffffffffffffffffffffffffffffffffffffff16906020019092919080359060200190640100000000811115610c4b57600080fd5b820183602082011115610c5d57600080fd5b80359060200191846001830284011164010000000083111715610c7f57600080fd5b91908080601f016020809104026020016040519081016040528093929190818152602001838380828437600081840152601f19601f820116905080830192505050505050509192919290803590602001909291908035906020019092919050505061292e565b005b610d1360048036036020811015610cfd57600080fd5b8101908080359060200190929190505050612c82565b005b60058181548110610d2257fe5b9060005260206000209060209182820401919006915054906101000a900460f81b81565b6007602052806000526040600020600091509050806000018054600181600116156101000203166002900480601f016020809104026020016040519081016040528092919081815260200182805460018160011615610100020316600290048015610df25780601f10610dc757610100808354040283529160200191610df2565b820191906000526020600020905b815481529060010190602001808311610dd557829003601f168201915b5050505050908060010154908060020154908060030160009054906101000a900460ff16905084565b60035481565b600760003373ffffffffffffffffffffffffffffffffffffffff1673ffffffffffffffffffffffffffffffffffffffff16815260200190815260200160002060030160009054906101000a900460ff16610ee3576040517f08c379a00000000000000000000000000000000000000000000000000000000081526004018080602001828103825260108152602001807f4e6f7420616e206f7267616e697a65720000000000000000000000000000000081525060200191505060405180910390fd5b60026004811115610ef057fe5b6000809054906101000a900460ff166004811115610f0a57fe5b14610f7d576040517f08c379a00000000000000000000000000000000000000000000000000000000081526004018080602001828103825260138152602001807f5374617465206973206e6f7420766f74696e670000000000000000000000000081525060200191505060405180910390fd5b600073ffffffffffffffffffffffffffffffffffffffff16600d600084815260200190815260200160002060000160009054906101000a900473ffffffffffffffffffffffffffffffffffffffff1673ffffffffffffffffffffffffffffffffffffffff161415611056576040517f08c379a00000000000000000000000000000000000000000000000000000000081526004018080602001828103825260148152602001807f426c696e6420646f6573206e6f7420657869737400000000000000000000000081525060200191505060405180910390fd5b3373ffffffffffffffffffffffffffffffffffffffff16600d600084815260200190815260200160002060010160009054906101000a900473ffffffffffffffffffffffffffffffffffffffff1673ffffffffffffffffffffffffffffffffffffffff1614611110576040517f08c379a00000000000000000000000000000000000000000000000000000000081526004018080602001828103825260268152602001806132356026913960400191505060405180910390fd5b600d600083815260200190815260200160002060010160149054906101000a900460ff16156111a7576040517f08c379a00000000000000000000000000000000000000000000000000000000081526004018080602001828103825260198152602001807f5265717565737420697320616c7265616479207369676e65640000000000000081525060200191505060405180910390fd5b6001600d600084815260200190815260200160002060010160146101000a81548160ff02191690831515021790555080600a60008573ffffffffffffffffffffffffffffffffffffffff1673ffffffffffffffffffffffffffffffffffffffff16815260200190815260200160002060020181905550505050565b60135481565b600073ffffffffffffffffffffffffffffffffffffffff16600a60003373ffffffffffffffffffffffffffffffffffffffff1673ffffffffffffffffffffffffffffffffffffffff16815260200190815260200160002060030160009054906101000a900473ffffffffffffffffffffffffffffffffffffffff1673ffffffffffffffffffffffffffffffffffffffff16141561132d576040517f08c379a000000000000000000000000000000000000000000000000000000000815260040180806020018281038252600b8152602001807f4e6f74206120766f74657200000000000000000000000000000000000000000081525060200191505060405180910390fd5b6002600481111561133a57fe5b6000809054906101000a900460ff16600481111561135457fe5b146113c7576040517f08c379a00000000000000000000000000000000000000000000000000000000081526004018080602001828103825260138152602001807f5374617465206973206e6f7420766f74696e670000000000000000000000000081525060200191505060405180910390fd5b600073ffffffffffffffffffffffffffffffffffffffff16600d600083815260200190815260200160002060000160009054906101000a900473ffffffffffffffffffffffffffffffffffffffff1673ffffffffffffffffffffffffffffffffffffffff161461149f576040517f08c379a000000000000000000000000000000000000000000000000000000000815260040180806020018281038252600c8152602001807f426c696e6420657869737473000000000000000000000000000000000000000081525060200191505060405180910390fd5b60405180606001604052803373ffffffffffffffffffffffffffffffffffffffff1681526020018373ffffffffffffffffffffffffffffffffffffffff16815260200160001515815250600d600083815260200190815260200160002060008201518160000160006101000a81548173ffffffffffffffffffffffffffffffffffffffff021916908373ffffffffffffffffffffffffffffffffffffffff16021790555060208201518160010160006101000a81548173ffffffffffffffffffffffffffffffffffffffff021916908373ffffffffffffffffffffffffffffffffffffffff16021790555060408201518160010160146101000a81548160ff021916908315150217905550905050600e819080600181540180825580915050906001820390600052602060002001600090919290919091505550600f6000815480929190600101919050555080600a60003373ffffffffffffffffffffffffffffffffffffffff1673ffffffffffffffffffffffffffffffffffffffff168152602001908152602001600020600101819055505050565b600c5481565b600760003373ffffffffffffffffffffffffffffffffffffffff1673ffffffffffffffffffffffffffffffffffffffff16815260200190815260200160002060030160009054906101000a900460ff166116fe576040517f08c379a00000000000000000000000000000000000000000000000000000000081526004018080602001828103825260108152602001807f4e6f7420616e206f7267616e697a65720000000000000000000000000000000081525060200191505060405180910390fd5b6000600481111561170b57fe5b6000809054906101000a900460ff16600481111561172557fe5b14611798576040517f08c379a00000000000000000000000000000000000000000000000000000000081526004018080602001828103825260188152602001807f5374617465206973206e6f74207072657061726174696f6e000000000000000081525060200191505060405180910390fd5b604051806060016040528082815260200160008152602001600115158152506004600060058054905060ff1660ff16815260200190815260200160002060008201518160000190805190602001906117f192919061318f565b506020820151816001015560408201518160020160006101000a81548160ff0219169083151502179055509050506005808054905060001b601f6020811061183557fe5b1a60f81b908060018154018082558091505090600182039060005260206000209060209182820401919006909192909190916101000a81548160ff021916908360f81c0217905550506006600081819054906101000a900460ff168092919060010191906101000a81548160ff021916908360ff1602179055505050565b600760003373ffffffffffffffffffffffffffffffffffffffff1673ffffffffffffffffffffffffffffffffffffffff16815260200190815260200160002060030160009054906101000a900460ff16611975576040517f08c379a00000000000000000000000000000000000000000000000000000000081526004018080602001828103825260108152602001807f4e6f7420616e206f7267616e697a65720000000000000000000000000000000081525060200191505060405180910390fd5b6001600481111561198257fe5b6000809054906101000a900460ff16600481111561199c57fe5b14611a0f576040517f08c379a00000000000000000000000000000000000000000000000000000000081526004018080602001828103825260198152602001807f5374617465206973206e6f7420726567697374726174696f6e0000000000000081525060200191505060405180910390fd5b600254421015611a6a576040517f08c379a00000000000000000000000000000000000000000000000000000000081526004018080602001828103825260238152602001806132cc6023913960400191505060405180910390fd5b60026000806101000a81548160ff02191690836004811115611a8857fe5b0217905550565b60025481565b60108181548110611aa257fe5b90600052602060002090600302016000915090508060000154908060010154908060020160009054906101000a900473ffffffffffffffffffffffffffffffffffffffff16908060020160149054906101000a900460ff16905084565b600e8181548110611b0c57fe5b906000526020600020016000915090505481565b600f5481565b60015481565b600080611b3a868587612f3a565b60001b90506000836040516020018082815260200191505060405160208183030381529060405280519060200120905081811492505050949350505050565b6004602052806000526040600020600091509050806000018054600181600116156101000203166002900480601f016020809104026020016040519081016040528092919081815260200182805460018160011615610100020316600290048015611c255780601f10611bfa57610100808354040283529160200191611c25565b820191906000526020600020905b815481529060010190602001808311611c0857829003601f168201915b5050505050908060010154908060020160009054906101000a900460ff16905083565b600d6020528060005260406000206000915090508060000160009054906101000a900473ffffffffffffffffffffffffffffffffffffffff16908060010160009054906101000a900473ffffffffffffffffffffffffffffffffffffffff16908060010160149054906101000a900460ff16905083565b60026004811115611ccc57fe5b6000809054906101000a900460ff166004811115611ce657fe5b14611d59576040517f08c379a00000000000000000000000000000000000000000000000000000000081526004018080602001828103825260138152602001807f5374617465206973206e6f7420766f74696e670000000000000000000000000081525060200191505060405180910390fd5b600a60003373ffffffffffffffffffffffffffffffffffffffff1673ffffffffffffffffffffffffffffffffffffffff16815260200190815260200160002060030160149054906101000a900460ff1615611dff576040517f08c379a000000000000000000000000000000000000000000000000000000000815260040180806020018281038252602281526020018061327d6022913960400191505060405180910390fd5b6012600084815260200190815260200160002060009054906101000a900460ff1615611e93576040517f08c379a00000000000000000000000000000000000000000000000000000000081526004018080602001828103825260128152602001807f566f746520737472696e6720657869737473000000000000000000000000000081525060200191505060405180910390fd5b600083604051602001808281526020019150506040516020818303038152906040528051906020012090506000600760008473ffffffffffffffffffffffffffffffffffffffff1673ffffffffffffffffffffffffffffffffffffffff1681526020019081526020016000206001015490506000600760008573ffffffffffffffffffffffffffffffffffffffff1673ffffffffffffffffffffffffffffffffffffffff168152602001908152602001600020600201549050611f5885838386611b2c565b611fca576040517f08c379a000000000000000000000000000000000000000000000000000000000815260040180806020018281038252601c8152602001807f426c696e64207369676e617475726520697320696e636f72726563740000000081525060200191505060405180910390fd5b611fd5868686612f93565b505050505050565b60095481565b60088181548110611ff057fe5b906000526020600020016000915054906101000a900473ffffffffffffffffffffffffffffffffffffffff1681565b600a602052806000526040600020600091509050806000018054600181600116156101000203166002900480601f0160208091040260200160405190810160405280929190818152602001828054600181600116156101000203166002900480156120cb5780601f106120a0576101008083540402835291602001916120cb565b820191906000526020600020905b8154815290600101906020018083116120ae57829003601f168201915b5050505050908060010154908060020154908060030160009054906101000a900473ffffffffffffffffffffffffffffffffffffffff16908060030160149054906101000a900460ff16905085565b600660009054906101000a900460ff1681565b6000809054906101000a900460ff1681565b600760003373ffffffffffffffffffffffffffffffffffffffff1673ffffffffffffffffffffffffffffffffffffffff16815260200190815260200160002060030160009054906101000a900460ff16612201576040517f08c379a00000000000000000000000000000000000000000000000000000000081526004018080602001828103825260108152602001807f4e6f7420616e206f7267616e697a65720000000000000000000000000000000081525060200191505060405180910390fd5b6002600481111561220e57fe5b6000809054906101000a900460ff16600481111561222857fe5b1461229b576040517f08c379a00000000000000000000000000000000000000000000000000000000081526004018080602001828103825260138152602001807f5374617465206973206e6f7420766f74696e670000000000000000000000000081525060200191505060405180910390fd5b600354421015612313576040517f08c379a000000000000000000000000000000000000000000000000000000000815260040180806020018281038252601d8152602001807f566f74696e672074696d6520686173206e6f7420656e6465642079657400000081525060200191505060405180910390fd5b60036000806101000a81548160ff0219169083600481111561233157fe5b0217905550565b60115481565b600760003373ffffffffffffffffffffffffffffffffffffffff1673ffffffffffffffffffffffffffffffffffffffff16815260200190815260200160002060030160009054906101000a900460ff16612400576040517f08c379a00000000000000000000000000000000000000000000000000000000081526004018080602001828103825260108152602001807f4e6f7420616e206f7267616e697a65720000000000000000000000000000000081525060200191505060405180910390fd5b6000600481111561240d57fe5b6000809054906101000a900460ff16600481111561242757fe5b1461249a576040517f08c379a00000000000000000000000000000000000000000000000000000000081526004018080602001828103825260188152602001807f5374617465206973206e6f74207072657061726174696f6e000000000000000081525060200191505060405180910390fd5b6001544210156124f5576040517f08c379a000000000000000000000000000000000000000000000000000000000815260040180806020018281038252602281526020018061325b6022913960400191505060405180910390fd5b60016000806101000a81548160ff0219169083600481111561251357fe5b0217905550565b600760003373ffffffffffffffffffffffffffffffffffffffff1673ffffffffffffffffffffffffffffffffffffffff16815260200190815260200160002060030160009054906101000a900460ff166125dc576040517f08c379a00000000000000000000000000000000000000000000000000000000081526004018080602001828103825260108152602001807f4e6f7420616e206f7267616e697a65720000000000000000000000000000000081525060200191505060405180910390fd5b600160048111156125e957fe5b6000809054906101000a900460ff16600481111561260357fe5b14612676576040517f08c379a00000000000000000000000000000000000000000000000000000000081526004018080602001828103825260198152602001807f5374617465206973206e6f7420726567697374726174696f6e0000000000000081525060200191505060405180910390fd5b600a60008373ffffffffffffffffffffffffffffffffffffffff1673ffffffffffffffffffffffffffffffffffffffff16815260200190815260200160002060030160149054906101000a900460ff1615612739576040517f08c379a000000000000000000000000000000000000000000000000000000000815260040180806020018281038252601b8152602001807f566f74657220697320616c72656164792072656769737465726564000000000081525060200191505060405180910390fd5b6040518060a001604052808281526020016000815260200160008152602001600073ffffffffffffffffffffffffffffffffffffffff16815260200160011515815250600a60008473ffffffffffffffffffffffffffffffffffffffff1673ffffffffffffffffffffffffffffffffffffffff16815260200190815260200160002060008201518160000190805190602001906127d792919061318f565b50602082015181600101556040820151816002015560608201518160030160006101000a81548173ffffffffffffffffffffffffffffffffffffffff021916908373ffffffffffffffffffffffffffffffffffffffff16021790555060808201518160030160146101000a81548160ff021916908315150217905550905050600b8290806001815401808255809150509060018203906000526020600020016000909192909190916101000a81548173ffffffffffffffffffffffffffffffffffffffff021916908373ffffffffffffffffffffffffffffffffffffffff16021790555050600c600081548092919060010191905055505050565b600b81815481106128df57fe5b906000526020600020016000915054906101000a900473ffffffffffffffffffffffffffffffffffffffff1681565b60126020528060005260406000206000915054906101000a900460ff1681565b600760003373ffffffffffffffffffffffffffffffffffffffff1673ffffffffffffffffffffffffffffffffffffffff16815260200190815260200160002060030160009054906101000a900460ff166129f0576040517f08c379a00000000000000000000000000000000000000000000000000000000081526004018080602001828103825260108152602001807f4e6f7420616e206f7267616e697a65720000000000000000000000000000000081525060200191505060405180910390fd5b600060048111156129fd57fe5b6000809054906101000a900460ff166004811115612a1757fe5b14612a8a576040517f08c379a00000000000000000000000000000000000000000000000000000000081526004018080602001828103825260188152602001807f5374617465206973206e6f74207072657061726174696f6e000000000000000081525060200191505060405180910390fd5b600760008573ffffffffffffffffffffffffffffffffffffffff1673ffffffffffffffffffffffffffffffffffffffff16815260200190815260200160002060030160009054906101000a900460ff1615612b4d576040517f08c379a00000000000000000000000000000000000000000000000000000000081526004018080602001828103825260188152602001807f4f7267616e697a657220616c726561647920657869737473000000000000000081525060200191505060405180910390fd5b604051806080016040528084815260200183815260200182815260200160011515815250600760008673ffffffffffffffffffffffffffffffffffffffff1673ffffffffffffffffffffffffffffffffffffffff1681526020019081526020016000206000820151816000019080519060200190612bcc92919061318f565b50602082015181600101556040820151816002015560608201518160030160006101000a81548160ff02191690831515021790555090505060088490806001815401808255809150509060018203906000526020600020016000909192909190916101000a81548173ffffffffffffffffffffffffffffffffffffffff021916908373ffffffffffffffffffffffffffffffffffffffff1602179055505060096000815480929190600101919050555050505050565b600760003373ffffffffffffffffffffffffffffffffffffffff1673ffffffffffffffffffffffffffffffffffffffff16815260200190815260200160002060030160009054906101000a900460ff16612d44576040517f08c379a00000000000000000000000000000000000000000000000000000000081526004018080602001828103825260108152602001807f4e6f7420616e206f7267616e697a65720000000000000000000000000000000081525060200191505060405180910390fd5b60036004811115612d5157fe5b6000809054906101000a900460ff166004811115612d6b57fe5b14612dde576040517f08c379a00000000000000000000000000000000000000000000000000000000081526004018080602001828103825260158152602001807f5374617465206973206e6f742074616c6c79696e67000000000000000000000081525060200191505060405180910390fd5b60108054905060018260135401031115612e43576040517f08c379a000000000000000000000000000000000000000000000000000000000815260040180806020018281038252602d81526020018061329f602d913960400191505060405180910390fd5b6000601354905060006001836013540103905060008290505b818111612f1c57600060108281548110612e7257fe5b906000526020600020906003020160000154600060208110612e9057fe5b1a60f81b60f81c9050600460008260ff1660ff16815260200190815260200160002060010160008154809291906001019190505550600160108381548110612ed457fe5b906000526020600020906003020160020160146101000a81548160ff021916908315150217905550601360008154809291906001019190505550508080600101915050612e5c565b506010805490506013541415612f3557612f3461316a565b5b505050565b600060405160208152602080820152602060408201528460608201528360808201528260a082015260208160c083600060056107d05a03f18060008114612f8057612f85565b600080fd5b508151925050509392505050565b6004600084600060208110612fa457fe5b1a60f81b60f81c60ff1660ff16815260200190815260200160002060020160009054906101000a900460ff16613042576040517f08c379a00000000000000000000000000000000000000000000000000000000081526004018080602001828103825260148152602001807f496e76616c69642063616e64696461746520696400000000000000000000000081525060200191505060405180910390fd5b601060405180608001604052808581526020018481526020018373ffffffffffffffffffffffffffffffffffffffff1681526020016000151581525090806001815401808255809150509060018203906000526020600020906003020160009091929091909150600082015181600001556020820151816001015560408201518160020160006101000a81548173ffffffffffffffffffffffffffffffffffffffff021916908373ffffffffffffffffffffffffffffffffffffffff16021790555060608201518160020160146101000a81548160ff02191690831515021790555050505060116000815480929190600101919050555060016012600085815260200190815260200160002060006101000a81548160ff021916908315150217905550505050565b60046000806101000a81548160ff0219169083600481111561318857fe5b0217905550565b828054600181600116156101000203166002900490600052602060002090601f016020900481019282601f106131d057805160ff19168380011785556131fe565b828001600101855582156131fe579182015b828111156131fd5782518255916020019190600101906131e2565b5b50905061320b919061320f565b5090565b61323191905b8082111561322d576000816000905550600101613215565b5090565b9056fe4f7267616e697a6572206973206e6f74207468652064657369676e61746564207369676e65725072657061726174696f6e2074696d6520686173206e6f7420656e64656420796574566f74652073656e646572206973207265676973746572656420617320766f746572417474656d7074696e6720746f2074616c6c79206d6f7265207468616e20756e636f756e74656420766f746573526567697374726174696f6e2074696d6520686173206e6f7420656e64656420796574a165627a7a723058204588022f8f106b346fa9e67abd04182d54c367b70658c199769c95800da9174c0029",
  "source": "pragma solidity ^0.5.8;\r\n\r\ncontract VotingContract {\r\n    // Variables\r\n    enum State {\r\n        Preparation,\r\n        Registration,\r\n        Voting,\r\n        Tallying,\r\n        Finished\r\n    }\r\n    State public state;\r\n    uint256 public endPreparationTime;\r\n    uint256 public endRegistrationTime;\r\n    uint256 public endVotingTime;\r\n\r\n    struct Candidate {\r\n        string name;\r\n        uint256 voteCount;\r\n        bool exists;\r\n    }\r\n    mapping(uint8 => Candidate) public candidates; // uint8 candidateId (bytes1) to Candidate\r\n    bytes1[] public candidateIds;\r\n    uint8 public candidateCount;\r\n\r\n    struct Organizer {\r\n        string name;\r\n        uint256 N;\r\n        uint256 E;\r\n        bool exists;\r\n    }\r\n    mapping(address => Organizer) public organizers;\r\n    address[] public organizerAddresses;\r\n    uint256 public organizerCount;\r\n\r\n    struct Voter {\r\n        string name;\r\n        uint256 blinded;\r\n        uint256 signed;\r\n        address signer;\r\n        bool exists;\r\n    }\r\n    mapping(address => Voter) public voters;\r\n    address[] public voterAddresses;\r\n    uint256 public voterCount;\r\n\r\n    struct BlindSigRequest {\r\n        address requester;\r\n        address signer;\r\n        bool signed;\r\n    }\r\n    mapping(uint256 => BlindSigRequest) public blindSigRequests;\r\n    uint256[] public blinds;\r\n    uint256 public blindCount;\r\n\r\n    struct Vote {\r\n        bytes32 voteString;\r\n        uint256 unblinded;\r\n        address signer;\r\n        bool counted;\r\n    }\r\n    Vote[] public votes;\r\n    uint256 public voteCount;\r\n    mapping(bytes32 => bool) public voteExists; // bytes32 voteString to bool\r\n    uint256 public countedVotes;\r\n\r\n    // Events\r\n\r\n    // Functions\r\n    constructor(\r\n        string memory name,\r\n        uint256 N,\r\n        uint256 E,\r\n        uint256 endPreparationTimestamp,\r\n        uint256 endRegistrationTimestamp,\r\n        uint256 endVotingTimestamp\r\n    )\r\n        public\r\n    {\r\n        state = State.Preparation;\r\n        organizers[msg.sender] = Organizer(\r\n            name,\r\n            N,\r\n            E,\r\n            true\r\n        );\r\n        organizerAddresses.push(msg.sender);\r\n        organizerCount++;\r\n        endPreparationTime = endPreparationTimestamp;\r\n        endRegistrationTime = endRegistrationTimestamp;\r\n        endVotingTime = endVotingTimestamp;\r\n    }\r\n\r\n    modifier onlyOrganizer {\r\n        require(organizers[msg.sender].exists, \"Not an organizer\");\r\n        _;\r\n    }\r\n\r\n    modifier onlyVoter {\r\n        require(voters[msg.sender].signer != address(0), \"Not a voter\");\r\n        _;\r\n    }\r\n    // fallback function (if exists)\r\n    // external\r\n    // public\r\n    function addCandidate(\r\n        string memory name\r\n    )\r\n        public\r\n        onlyOrganizer\r\n    {\r\n        require(state == State.Preparation, \"State is not preparation\");\r\n        candidates[uint8(candidateIds.length)] = Candidate(\r\n            name,\r\n            0,\r\n            true\r\n        );\r\n        candidateIds.push(bytes32(candidateIds.length)[31]);\r\n        candidateCount++;\r\n    }\r\n\r\n    function addOrganizer(\r\n        address organizerAddress,\r\n        string memory name,\r\n        uint256 N,\r\n        uint256 E\r\n    )\r\n        public\r\n        onlyOrganizer\r\n    {\r\n        require(state == State.Preparation, \"State is not preparation\");\r\n        require(!organizers[organizerAddress].exists, \"Organizer already exists\");\r\n        organizers[organizerAddress] = Organizer(\r\n            name,\r\n            N,\r\n            E,\r\n            true\r\n        );\r\n        organizerAddresses.push(organizerAddress);\r\n        organizerCount++;\r\n    }\r\n\r\n    function addVoter(\r\n        address voterAddress,\r\n        string memory name\r\n    )\r\n        public\r\n        onlyOrganizer\r\n    {\r\n        require(state == State.Registration, \"State is not registration\");\r\n        require(!voters[voterAddress].exists, \"Voter is already registered\");\r\n        voters[voterAddress] = Voter(\r\n            name,\r\n            uint256(0),\r\n            uint256(0),\r\n            address(0),\r\n            true\r\n        );\r\n        voterAddresses.push(voterAddress);\r\n        voterCount++;\r\n    }\r\n\r\n    function requestBlindSig(\r\n        address signer,\r\n        uint256 blinded\r\n    )\r\n        public\r\n        onlyVoter\r\n    {\r\n        require(state == State.Voting, \"State is not voting\");\r\n        require(blindSigRequests[blinded].requester == address(0), \"Blind exists\");\r\n        blindSigRequests[blinded] = BlindSigRequest(\r\n            msg.sender,\r\n            signer,\r\n            false\r\n        );\r\n        blinds.push(blinded);\r\n        blindCount++;\r\n        voters[msg.sender].blinded = blinded;\r\n    }\r\n\r\n    function signBlindSigRequest(\r\n        address requester,\r\n        uint256 blinded,\r\n        uint256 signed\r\n    )\r\n        public\r\n        onlyOrganizer\r\n    {\r\n        require(state == State.Voting, \"State is not voting\");\r\n        require(blindSigRequests[blinded].requester != address(0), \"Blind does not exist\");\r\n        require(blindSigRequests[blinded].signer == msg.sender, \"Organizer is not the designated signer\");\r\n        require(!blindSigRequests[blinded].signed, \"Request is already signed\");\r\n        blindSigRequests[blinded].signed = true;\r\n        voters[requester].signed = signed;\r\n    }\r\n\r\n    function vote(\r\n        bytes32 voteString,\r\n        uint256 unblinded,\r\n        address signer\r\n    )\r\n        public\r\n    {\r\n        require(state == State.Voting, \"State is not voting\");\r\n        // Make sure voter is not using its registered account\r\n        require(!voters[msg.sender].exists, \"Vote sender is registered as voter\");\r\n        // Check if voteString has been used\r\n        require(!voteExists[voteString], \"Vote string exists\");\r\n\r\n        // Verify voteString with unblinded if its signed by signer\r\n        bytes32 message = keccak256(abi.encode(voteString));\r\n        uint256 N = organizers[signer].N;\r\n        uint256 E = organizers[signer].E;\r\n        require(verifyBlindSig(unblinded, N, E, message), \"Blind signature is incorrect\");\r\n\r\n        // Store the votes\r\n        addVote(voteString, unblinded, signer);\r\n    }\r\n\r\n    function tally(uint256 votesToTally) public onlyOrganizer {\r\n        require(state == State.Tallying, \"State is not tallying\");\r\n        require(countedVotes + votesToTally - 1 <= votes.length, \"Attempting to tally more than uncounted votes\");\r\n\r\n        uint256 startIndex = countedVotes;\r\n        uint256 endIndex = countedVotes + votesToTally - 1;\r\n        for (uint256 i = startIndex; i <= endIndex; i++) {\r\n            // get votes[i]\r\n            uint8 candidateId = uint8(votes[i].voteString[0]);\r\n            // check candidateId from votes[i].voteString\r\n            candidates[candidateId].voteCount++;\r\n            // Mark vote as counted\r\n            votes[i].counted = true;\r\n            // candidate[candidateId].voteCount++\r\n            countedVotes++;\r\n        }\r\n\r\n        if (countedVotes == votes.length) {\r\n            endTally();\r\n        }\r\n    }\r\n\r\n    function endPreparation() public onlyOrganizer {\r\n        require(state == State.Preparation, \"State is not preparation\");\r\n        require(block.timestamp >= endPreparationTime, \"Preparation time has not ended yet\");\r\n        state = State.Registration;\r\n    }\r\n\r\n    function endRegistration() public onlyOrganizer {\r\n        require(state == State.Registration, \"State is not registration\");\r\n        require(block.timestamp >= endRegistrationTime, \"Registration time has not ended yet\");\r\n        state = State.Voting;\r\n    }\r\n\r\n    function endVoting() public onlyOrganizer {\r\n        require(state == State.Voting, \"State is not voting\");\r\n        require(block.timestamp >= endVotingTime, \"Voting time has not ended yet\");\r\n        state = State.Tallying;\r\n    }\r\n    // internal\r\n    // private\r\n    function verifyBlindSig(\r\n        uint256 unblinded,\r\n        uint256 N,\r\n        uint256 E,\r\n        bytes32 message\r\n    )\r\n        public\r\n        returns (bool result)\r\n    {\r\n        bytes32 originalMessage = bytes32(expmod(unblinded, E, N));\r\n        bytes32 hashMessage = keccak256(abi.encode(message));\r\n        result = hashMessage == originalMessage;\r\n    }\r\n\r\n    function endTally() private {\r\n        state = State.Finished;\r\n    }\r\n\r\n    function addVote(\r\n        bytes32 voteString,\r\n        uint256 unblinded,\r\n        address signer\r\n    )\r\n        private\r\n    {\r\n        // Check if candidateId from voteString is correct\r\n        require(candidates[uint8(voteString[0])].exists, \"Invalid candidate id\");\r\n        votes.push(Vote(voteString, unblinded, signer, false));\r\n        voteCount++;\r\n        voteExists[voteString] = true;\r\n    }\r\n\r\n    // Source : https://medium.com/@rbkhmrcr/precompiles-solidity-e5d29bd428c4\r\n    // Calling expmod precompile\r\n    function expmod(uint256 base, uint256 e, uint256 m) private returns (uint256 o) {\r\n    // are all of these inside the precompile now?\r\n\r\n    assembly {\r\n        // define pointer\r\n        let p := mload(0x40)\r\n        // store data assembly-favouring ways\r\n        mstore(p, 0x20)             // Length of Base\r\n        mstore(add(p, 0x20), 0x20)  // Length of Exponent\r\n        mstore(add(p, 0x40), 0x20)  // Length of Modulus\r\n        mstore(add(p, 0x60), base)  // Base\r\n        mstore(add(p, 0x80), e)     // Exponent\r\n        mstore(add(p, 0xa0), m)     // Modulus\r\n        // call modexp precompile! -- old school gas handling\r\n        let success := call(sub(gas, 2000), 0x05, 0, p, 0xc0, p, 0x20)\r\n        // gas fiddling\r\n        switch success case 0 {\r\n            revert(0, 0)\r\n        }\r\n        // data\r\n        o := mload(p)\r\n        }\r\n    }\r\n}",
  "sourcePath": "E:/Development/Projects/BlockchainVoting/contracts/VotingContract.sol",
  "compiler": {
    "name": "solc",
    "version": "0.5.8+commit.23d335f2.Emscripten.clang"
  },
  "schemaVersion": "3.0.9",
  "updatedAt": "2019-06-03T18:11:03.750Z",
  "devdoc": {
    "methods": {}
  },
  "userdoc": {
    "methods": {}
  }
}